{
  "contractName": "HappyAlliance",
  "abi": [
    {
      "constant": true,
      "inputs": [
        {
          "name": "",
          "type": "uint256"
        }
      ],
      "name": "boxStatus",
      "outputs": [
        {
          "name": "",
          "type": "uint256"
        }
      ],
      "payable": false,
      "stateMutability": "view",
      "type": "function"
    },
    {
      "constant": true,
      "inputs": [
        {
          "name": "",
          "type": "uint256"
        }
      ],
      "name": "boxes",
      "outputs": [
        {
          "name": "boxId",
          "type": "string"
        },
        {
          "name": "boxType",
          "type": "string"
        },
        {
          "name": "generatedYear",
          "type": "string"
        },
        {
          "name": "serializedDonationsDetails",
          "type": "string"
        },
        {
          "name": "expirationDate",
          "type": "string"
        },
        {
          "name": "npoInfo",
          "type": "string"
        },
        {
          "name": "npoReceivedTime",
          "type": "string"
        },
        {
          "name": "recipientInfo",
          "type": "string"
        },
        {
          "name": "recipientReceivedTime",
          "type": "string"
        }
      ],
      "payable": false,
      "stateMutability": "view",
      "type": "function"
    },
    {
      "constant": false,
      "inputs": [],
      "name": "renounceOwnership",
      "outputs": [],
      "payable": false,
      "stateMutability": "nonpayable",
      "type": "function"
    },
    {
      "constant": true,
      "inputs": [],
      "name": "owner",
      "outputs": [
        {
          "name": "",
          "type": "address"
        }
      ],
      "payable": false,
      "stateMutability": "view",
      "type": "function"
    },
    {
      "constant": true,
      "inputs": [],
      "name": "isOwner",
      "outputs": [
        {
          "name": "",
          "type": "bool"
        }
      ],
      "payable": false,
      "stateMutability": "view",
      "type": "function"
    },
    {
      "constant": true,
      "inputs": [
        {
          "name": "",
          "type": "uint256"
        }
      ],
      "name": "boxIdList",
      "outputs": [
        {
          "name": "",
          "type": "string"
        }
      ],
      "payable": false,
      "stateMutability": "view",
      "type": "function"
    },
    {
      "constant": false,
      "inputs": [
        {
          "name": "newOwner",
          "type": "address"
        }
      ],
      "name": "transferOwnership",
      "outputs": [],
      "payable": false,
      "stateMutability": "nonpayable",
      "type": "function"
    },
    {
      "constant": true,
      "inputs": [
        {
          "name": "",
          "type": "uint256"
        }
      ],
      "name": "donations",
      "outputs": [
        {
          "name": "donationId",
          "type": "string"
        },
        {
          "name": "memberId",
          "type": "string"
        }
      ],
      "payable": false,
      "stateMutability": "view",
      "type": "function"
    },
    {
      "inputs": [],
      "payable": false,
      "stateMutability": "nonpayable",
      "type": "constructor"
    },
    {
      "anonymous": false,
      "inputs": [
        {
          "indexed": true,
          "name": "previousOwner",
          "type": "address"
        },
        {
          "indexed": true,
          "name": "newOwner",
          "type": "address"
        }
      ],
      "name": "OwnershipTransferred",
      "type": "event"
    },
    {
      "constant": false,
      "inputs": [
        {
          "name": "_donationId",
          "type": "string"
        },
        {
          "name": "_memberId",
          "type": "string"
        }
      ],
      "name": "donate",
      "outputs": [],
      "payable": false,
      "stateMutability": "nonpayable",
      "type": "function"
    },
    {
      "constant": false,
      "inputs": [
        {
          "name": "_boxId",
          "type": "string"
        },
        {
          "name": "_boxType",
          "type": "string"
        },
        {
          "name": "_year",
          "type": "string"
        },
        {
          "name": "_serializedDonationsDetails",
          "type": "string"
        },
        {
          "name": "_expirationDate",
          "type": "string"
        },
        {
          "name": "_npo",
          "type": "string"
        }
      ],
      "name": "sendBox",
      "outputs": [],
      "payable": false,
      "stateMutability": "nonpayable",
      "type": "function"
    },
    {
      "constant": true,
      "inputs": [],
      "name": "getBoxIds",
      "outputs": [
        {
          "name": "",
          "type": "string[]"
        }
      ],
      "payable": false,
      "stateMutability": "view",
      "type": "function"
    },
    {
      "constant": true,
      "inputs": [
        {
          "name": "_boxId",
          "type": "string"
        }
      ],
      "name": "getHistoryOfBox",
      "outputs": [
        {
          "name": "",
          "type": "string[]"
        }
      ],
      "payable": false,
      "stateMutability": "view",
      "type": "function"
    },
    {
      "constant": false,
      "inputs": [
        {
          "name": "_boxId",
          "type": "string"
        },
        {
          "name": "_time",
          "type": "string"
        }
      ],
      "name": "npoConfirm",
      "outputs": [],
      "payable": false,
      "stateMutability": "nonpayable",
      "type": "function"
    },
    {
      "constant": false,
      "inputs": [
        {
          "name": "_boxId",
          "type": "string"
        },
        {
          "name": "_recipientInfo",
          "type": "string"
        },
        {
          "name": "_time",
          "type": "string"
        }
      ],
      "name": "addRecipientInfo",
      "outputs": [],
      "payable": false,
      "stateMutability": "nonpayable",
      "type": "function"
    },
    {
      "constant": true,
      "inputs": [],
      "name": "getStatusForAll",
      "outputs": [
        {
          "name": "",
          "type": "uint256[]"
        }
      ],
      "payable": false,
      "stateMutability": "view",
      "type": "function"
    },
    {
      "constant": true,
      "inputs": [
        {
          "name": "_boxId",
          "type": "string"
        }
      ],
      "name": "viewBoxInformation",
      "outputs": [
        {
          "name": "",
          "type": "string"
        },
        {
          "name": "",
          "type": "string"
        },
        {
          "name": "",
          "type": "string"
        },
        {
          "name": "",
          "type": "string"
        },
        {
          "name": "",
          "type": "string"
        },
        {
          "name": "",
          "type": "string"
        }
      ],
      "payable": false,
      "stateMutability": "view",
      "type": "function"
    },
    {
      "constant": true,
      "inputs": [
        {
          "name": "_boxId",
          "type": "string"
        }
      ],
      "name": "getIndexByBoxId",
      "outputs": [
        {
          "name": "",
          "type": "uint256"
        }
      ],
      "payable": false,
      "stateMutability": "view",
      "type": "function"
    },
    {
      "constant": true,
      "inputs": [
        {
          "name": "_year",
          "type": "string"
        }
      ],
      "name": "getNumBoxesByYear",
      "outputs": [
        {
          "name": "",
          "type": "uint256"
        }
      ],
      "payable": false,
      "stateMutability": "view",
      "type": "function"
    },
    {
      "constant": true,
      "inputs": [
        {
          "name": "_npo",
          "type": "string"
        }
      ],
      "name": "getBoxInfoByNPO",
      "outputs": [
        {
          "name": "",
          "type": "string[]"
        },
        {
          "name": "",
          "type": "string[]"
        },
        {
          "name": "",
          "type": "string[]"
        },
        {
          "name": "",
          "type": "string[]"
        },
        {
          "name": "",
          "type": "string[]"
        },
        {
          "name": "",
          "type": "string[]"
        }
      ],
      "payable": false,
      "stateMutability": "view",
      "type": "function"
    },
    {
      "constant": true,
      "inputs": [],
      "name": "getAllBoxInfo",
      "outputs": [
        {
          "name": "",
          "type": "string[]"
        },
        {
          "name": "",
          "type": "string[]"
        },
        {
          "name": "",
          "type": "string[]"
        },
        {
          "name": "",
          "type": "string[]"
        }
      ],
      "payable": false,
      "stateMutability": "view",
      "type": "function"
    }
  ],
  "bytecode": "0x60806040523480156200001157600080fd5b50336000806101000a81548173ffffffffffffffffffffffffffffffffffffffff021916908373ffffffffffffffffffffffffffffffffffffffff1602179055506000809054906101000a900473ffffffffffffffffffffffffffffffffffffffff1673ffffffffffffffffffffffffffffffffffffffff16600073ffffffffffffffffffffffffffffffffffffffff167f8be0079c531659141344cd1fd0a4f28419497f9722a3daafe3b4186f6b6457e060405160405180910390a36200022b6040805190810160405280600a81526020017f696e697469616c697a65000000000000000000000000000000000000000000008152506040805190810160405280600981526020017f756e646566696e656400000000000000000000000000000000000000000000008152506040805190810160405280600981526020017f756e646566696e656400000000000000000000000000000000000000000000008152506040805190810160405280601381526020017f5b7b22756e646566696e6564223a2022227d5d000000000000000000000000008152506040805190810160405280600481526020017f6e756c6c000000000000000000000000000000000000000000000000000000008152506040805190810160405280600981526020017f756e646566696e65640000000000000000000000000000000000000000000000815250620002d7640100000000026401000000009004565b6063600a60008154811015156200023e57fe5b9060005260206000200181905550620002d16040805190810160405280600a81526020017f696e697469616c697a65000000000000000000000000000000000000000000008152506040805190810160405280600681526020017f6e6f6e616d650000000000000000000000000000000000000000000000000000815250620007f6640100000000026401000000009004565b62000acf565b620002e162000932565b868160000181905250858160200181905250848160400181905250838160600181905250828160800181905250818160a0018190525060206040519081016040528060008152508160c0018190525060206040519081016040528060008152508160e001819052506020604051908101604052806000815250816101000181905250600381908060018154018082558091505090600182039060005260206000209060090201600090919290919091506000820151816000019080519060200190620003af9291906200097f565b506020820151816001019080519060200190620003ce9291906200097f565b506040820151816002019080519060200190620003ed9291906200097f565b5060608201518160030190805190602001906200040c9291906200097f565b5060808201518160040190805190602001906200042b9291906200097f565b5060a08201518160050190805190602001906200044a9291906200097f565b5060c0820151816006019080519060200190620004699291906200097f565b5060e0820151816007019080519060200190620004889291906200097f565b50610100820151816008019080519060200190620004a89291906200097f565b50505050600a60009080600181540180825580915050906001820390600052602060002001600090919290919091505550816005886040518082805190602001908083835b602083101515620005145780518252602082019150602081019050602083039250620004ed565b6001836020036101000a038019825116818451168082178552505050505050905001915050908152602001604051809103902090805190602001906200055c92919062000a06565b506006826040518082805190602001908083835b60208310151562000597578051825260208201915060208101905060208303925062000570565b6001836020036101000a03801982511681845116808217855250505050505090500191505090815260200160405180910390208790806001815401808255809150509060018203906000526020600020016000909192909190915090805190602001906200060792919062000a06565b50506001600380549050036007886040518082805190602001908083835b6020831015156200064c578051825260208201915060208101905060208303925062000625565b6001836020036101000a0380198251168184511680821785525050505050509050019150509081526020016040518091039020819055506008876040518082805190602001908083835b602083101515620006bd578051825260208201915060208101905060208303925062000696565b6001836020036101000a03801982511681845116808217855250505050505090500191505090815260200160405180910390208290806001815401808255809150509060018203906000526020600020016000909192909190915090805190602001906200072d92919062000a06565b505060098790806001815401808255809150509060018203906000526020600020016000909192909190915090805190602001906200076e92919062000a06565b50506004856040518082805190602001908083835b602083101515620007aa578051825260208201915060208101905060208303925062000783565b6001836020036101000a03801982511681845116808217855250505050505090500191505090815260200160405180910390206000815480929190600101919050555050505050505050565b6200080062000a8d565b8281600001819052508181602001819052506001819080600181540180825580915050906001820390600052602060002090600202016000909192909190915060008201518160000190805190602001906200085e9291906200097f565b5060208201518160010190805190602001906200087d9291906200097f565b505050506002826040518082805190602001908083835b602083101515620008bb578051825260208201915060208101905060208303925062000894565b6001836020036101000a03801982511681845116808217855250505050505090500191505090815260200160405180910390208390806001815401808255809150509060018203906000526020600020016000909192909190915090805190602001906200092b92919062000a06565b5050505050565b610120604051908101604052806060815260200160608152602001606081526020016060815260200160608152602001606081526020016060815260200160608152602001606081525090565b828054600181600116156101000203166002900490600052602060002090601f016020900481019282601f10620009c257805160ff1916838001178555620009f3565b82800160010185558215620009f3579182015b82811115620009f2578251825591602001919060010190620009d5565b5b50905062000a02919062000aa7565b5090565b828054600181600116156101000203166002900490600052602060002090601f016020900481019282601f1062000a4957805160ff191683800117855562000a7a565b8280016001018555821562000a7a579182015b8281111562000a7957825182559160200191906001019062000a5c565b5b50905062000a89919062000aa7565b5090565b604080519081016040528060608152602001606081525090565b62000acc91905b8082111562000ac857600081600090555060010162000aae565b5090565b90565b613ec18062000adf6000396000f300608060405260043610610112576000357c0100000000000000000000000000000000000000000000000000000000900463ffffffff1680631653441c14610117578063384e02aa146101405780633d1819ad1461016957806342a4539c146101945780634aa57307146101d15780634ad62ae6146101ff5780634c9e2eab1461023c5780634ed3faf214610279578063675c9157146102be578063715018a6146102fb578063775c96e9146103125780638d6db855146103545780638da5cb5b1461037f5780638f32d59b146103aa57806399102861146103d5578063b31976b0146103fe578063b4712f611461043b578063c4d89b8f1461047d578063f2fde38b146104a6578063f8626af8146104cf575b600080fd5b34801561012357600080fd5b5061013e60048036036101399190810190613643565b61050d565b005b34801561014c57600080fd5b5061016760048036036101629190810190613746565b61063f565b005b34801561017557600080fd5b5061017e610b38565b60405161018b9190613a05565b60405180910390f35b3480156101a057600080fd5b506101bb60048036036101b69190810190613602565b610c21565b6040516101c89190613a05565b60405180910390f35b3480156101dd57600080fd5b506101e6610d75565b6040516101f69493929190613a27565b60405180910390f35b34801561020b57600080fd5b506102266004803603610221919081019061385f565b611269565b6040516102339190613d00565b60405180910390f35b34801561024857600080fd5b50610263600480360361025e9190810190613602565b61128c565b6040516102709190613d00565b60405180910390f35b34801561028557600080fd5b506102a0600480360361029b919081019061385f565b611301565b6040516102b599989796959493929190613c34565b60405180910390f35b3480156102ca57600080fd5b506102e560048036036102e09190810190613602565b6118b6565b6040516102f29190613d00565b60405180910390f35b34801561030757600080fd5b5061031061192b565b005b34801561031e57600080fd5b5061033960048036036103349190810190613602565b6119fd565b60405161034b96959493929190613a88565b60405180910390f35b34801561036057600080fd5b506103696124f2565b6040516103769190613b13565b60405180910390f35b34801561038b57600080fd5b5061039461254a565b6040516103a191906139ea565b60405180910390f35b3480156103b657600080fd5b506103bf612573565b6040516103cc9190613b35565b60405180910390f35b3480156103e157600080fd5b506103fc60048036036103f791908101906136af565b6125ca565b005b34801561040a57600080fd5b506104256004803603610420919081019061385f565b612841565b6040516104329190613b50565b60405180910390f35b34801561044757600080fd5b50610462600480360361045d9190810190613602565b6128fc565b60405161047496959493929190613b72565b60405180910390f35b34801561048957600080fd5b506104a4600480360361049f9190810190613643565b612f96565b005b3480156104b257600080fd5b506104cd60048036036104c891908101906135d9565b613153565b005b3480156104db57600080fd5b506104f660048036036104f1919081019061385f565b613172565b604051610504929190613bfd565b60405180910390f35b6105156133cf565b8281600001819052508181602001819052506001819080600181540180825580915050906001820390600052602060002090600202016000909192909190915060008201518160000190805190602001906105719291906133e9565b50602082015181600101908051906020019061058e9291906133e9565b505050506002826040518082805190602001908083835b6020831015156105ca57805182526020820191506020810190506020830392506105a5565b6001836020036101000a0380198251168184511680821785525050505050509050019150509081526020016040518091039020839080600181540180825580915050906001820390600052602060002001600090919290919091509080519060200190610638929190613469565b5050505050565b6106476134e9565b868160000181905250858160200181905250848160400181905250838160600181905250828160800181905250818160a0018190525060206040519081016040528060008152508160c0018190525060206040519081016040528060008152508160e0018190525060206040519081016040528060008152508161010001819052506003819080600181540180825580915050906001820390600052602060002090600902016000909192909190915060008201518160000190805190602001906107139291906133e9565b5060208201518160010190805190602001906107309291906133e9565b50604082015181600201908051906020019061074d9291906133e9565b50606082015181600301908051906020019061076a9291906133e9565b5060808201518160040190805190602001906107879291906133e9565b5060a08201518160050190805190602001906107a49291906133e9565b5060c08201518160060190805190602001906107c19291906133e9565b5060e08201518160070190805190602001906107de9291906133e9565b506101008201518160080190805190602001906107fc9291906133e9565b50505050600a60009080600181540180825580915050906001820390600052602060002001600090919290919091505550816005886040518082805190602001908083835b6020831015156108665780518252602082019150602081019050602083039250610841565b6001836020036101000a038019825116818451168082178552505050505050905001915050908152602001604051809103902090805190602001906108ac929190613469565b506006826040518082805190602001908083835b6020831015156108e557805182526020820191506020810190506020830392506108c0565b6001836020036101000a0380198251168184511680821785525050505050509050019150509081526020016040518091039020879080600181540180825580915050906001820390600052602060002001600090919290919091509080519060200190610953929190613469565b50506001600380549050036007886040518082805190602001908083835b6020831015156109965780518252602082019150602081019050602083039250610971565b6001836020036101000a0380198251168184511680821785525050505050509050019150509081526020016040518091039020819055506008876040518082805190602001908083835b602083101515610a0557805182526020820191506020810190506020830392506109e0565b6001836020036101000a0380198251168184511680821785525050505050509050019150509081526020016040518091039020829080600181540180825580915050906001820390600052602060002001600090919290919091509080519060200190610a73929190613469565b50506009879080600181540180825580915050906001820390600052602060002001600090919290919091509080519060200190610ab2929190613469565b50506004856040518082805190602001908083835b602083101515610aec5780518252602082019150602081019050602083039250610ac7565b6001836020036101000a03801982511681845116808217855250505050505090500191505090815260200160405180910390206000815480929190600101919050555050505050505050565b60606009805480602002602001604051908101604052809291908181526020016000905b82821015610c18578382906000526020600020018054600181600116156101000203166002900480601f016020809104026020016040519081016040528092919081815260200182805460018160011615610100020316600290048015610c045780601f10610bd957610100808354040283529160200191610c04565b820191906000526020600020905b815481529060010190602001808311610be757829003601f168201915b505050505081526020019060010190610b5c565b50505050905090565b60606008826040518082805190602001908083835b602083101515610c5b5780518252602082019150602081019050602083039250610c36565b6001836020036101000a0380198251168184511680821785525050505050509050019150509081526020016040518091039020805480602002602001604051908101604052809291908181526020016000905b82821015610d6a578382906000526020600020018054600181600116156101000203166002900480601f016020809104026020016040519081016040528092919081815260200182805460018160011615610100020316600290048015610d565780601f10610d2b57610100808354040283529160200191610d56565b820191906000526020600020905b815481529060010190602001808311610d3957829003601f168201915b505050505081526020019060010190610cae565b505050509050919050565b6060806060806060806060806000610d8b610b38565b94508451604051908082528060200260200182016040528015610dc257816020015b6060815260200190600190039081610dad5790505b5093508451604051908082528060200260200182016040528015610dfa57816020015b6060815260200190600190039081610de55790505b5092508451604051908082528060200260200182016040528015610e3257816020015b6060815260200190600190039081610e1d5790505b509150600090505b845181101561125257600360078683815181101515610e5557fe5b906020019060200201516040518082805190602001908083835b602083101515610e945780518252602082019150602081019050602083039250610e6f565b6001836020036101000a038019825116818451168082178552505050505050905001915050908152602001604051809103902054815481101515610ed457fe5b90600052602060002090600902016001018054600181600116156101000203166002900480601f016020809104026020016040519081016040528092919081815260200182805460018160011615610100020316600290048015610f795780601f10610f4e57610100808354040283529160200191610f79565b820191906000526020600020905b815481529060010190602001808311610f5c57829003601f168201915b50505050508482815181101515610f8c57fe5b90602001906020020181905250600360078683815181101515610fab57fe5b906020019060200201516040518082805190602001908083835b602083101515610fea5780518252602082019150602081019050602083039250610fc5565b6001836020036101000a03801982511681845116808217855250505050505090500191505090815260200160405180910390205481548110151561102a57fe5b90600052602060002090600902016003018054600181600116156101000203166002900480601f0160208091040260200160405190810160405280929190818152602001828054600181600116156101000203166002900480156110cf5780601f106110a4576101008083540402835291602001916110cf565b820191906000526020600020905b8154815290600101906020018083116110b257829003601f168201915b505050505083828151811015156110e257fe5b9060200190602002018190525060036007868381518110151561110157fe5b906020019060200201516040518082805190602001908083835b602083101515611140578051825260208201915060208101905060208303925061111b565b6001836020036101000a03801982511681845116808217855250505050505090500191505090815260200160405180910390205481548110151561118057fe5b90600052602060002090600902016005018054600181600116156101000203166002900480601f0160208091040260200160405190810160405280929190818152602001828054600181600116156101000203166002900480156112255780601f106111fa57610100808354040283529160200191611225565b820191906000526020600020905b81548152906001019060200180831161120857829003601f168201915b5050505050828281518110151561123857fe5b906020019060200201819052508080600101915050610e3a565b848484849850985098509850505050505090919293565b600a8181548110151561127857fe5b906000526020600020016000915090505481565b60006004826040518082805190602001908083835b6020831015156112c657805182526020820191506020810190506020830392506112a1565b6001836020036101000a0380198251168184511680821785525050505050509050019150509081526020016040518091039020549050919050565b60038181548110151561131057fe5b9060005260206000209060090201600091509050806000018054600181600116156101000203166002900480601f0160208091040260200160405190810160405280929190818152602001828054600181600116156101000203166002900480156113bc5780601f10611391576101008083540402835291602001916113bc565b820191906000526020600020905b81548152906001019060200180831161139f57829003601f168201915b505050505090806001018054600181600116156101000203166002900480601f01602080910402602001604051908101604052809291908181526020018280546001816001161561010002031660029004801561145a5780601f1061142f5761010080835404028352916020019161145a565b820191906000526020600020905b81548152906001019060200180831161143d57829003601f168201915b505050505090806002018054600181600116156101000203166002900480601f0160208091040260200160405190810160405280929190818152602001828054600181600116156101000203166002900480156114f85780601f106114cd576101008083540402835291602001916114f8565b820191906000526020600020905b8154815290600101906020018083116114db57829003601f168201915b505050505090806003018054600181600116156101000203166002900480601f0160208091040260200160405190810160405280929190818152602001828054600181600116156101000203166002900480156115965780601f1061156b57610100808354040283529160200191611596565b820191906000526020600020905b81548152906001019060200180831161157957829003601f168201915b505050505090806004018054600181600116156101000203166002900480601f0160208091040260200160405190810160405280929190818152602001828054600181600116156101000203166002900480156116345780601f1061160957610100808354040283529160200191611634565b820191906000526020600020905b81548152906001019060200180831161161757829003601f168201915b505050505090806005018054600181600116156101000203166002900480601f0160208091040260200160405190810160405280929190818152602001828054600181600116156101000203166002900480156116d25780601f106116a7576101008083540402835291602001916116d2565b820191906000526020600020905b8154815290600101906020018083116116b557829003601f168201915b505050505090806006018054600181600116156101000203166002900480601f0160208091040260200160405190810160405280929190818152602001828054600181600116156101000203166002900480156117705780601f1061174557610100808354040283529160200191611770565b820191906000526020600020905b81548152906001019060200180831161175357829003601f168201915b505050505090806007018054600181600116156101000203166002900480601f01602080910402602001604051908101604052809291908181526020018280546001816001161561010002031660029004801561180e5780601f106117e35761010080835404028352916020019161180e565b820191906000526020600020905b8154815290600101906020018083116117f157829003601f168201915b505050505090806008018054600181600116156101000203166002900480601f0160208091040260200160405190810160405280929190818152602001828054600181600116156101000203166002900480156118ac5780601f10611881576101008083540402835291602001916118ac565b820191906000526020600020905b81548152906001019060200180831161188f57829003601f168201915b5050505050905089565b60006007826040518082805190602001908083835b6020831015156118f057805182526020820191506020810190506020830392506118cb565b6001836020036101000a0380198251168184511680821785525050505050509050019150509081526020016040518091039020549050919050565b611933612573565b151561193e57600080fd5b600073ffffffffffffffffffffffffffffffffffffffff166000809054906101000a900473ffffffffffffffffffffffffffffffffffffffff1673ffffffffffffffffffffffffffffffffffffffff167f8be0079c531659141344cd1fd0a4f28419497f9722a3daafe3b4186f6b6457e060405160405180910390a360008060006101000a81548173ffffffffffffffffffffffffffffffffffffffff021916908373ffffffffffffffffffffffffffffffffffffffff160217905550565b6060806060806060806060806060806060806060600060068f6040518082805190602001908083835b602083101515611a4b5780518252602082019150602081019050602083039250611a26565b6001836020036101000a0380198251168184511680821785525050505050509050019150509081526020016040518091039020805480602002602001604051908101604052809291908181526020016000905b82821015611b5a578382906000526020600020018054600181600116156101000203166002900480601f016020809104026020016040519081016040528092919081815260200182805460018160011615610100020316600290048015611b465780601f10611b1b57610100808354040283529160200191611b46565b820191906000526020600020905b815481529060010190602001808311611b2957829003601f168201915b505050505081526020019060010190611a9e565b5050505097508751604051908082528060200260200182016040528015611b9557816020015b6060815260200190600190039081611b805790505b5096508751604051908082528060200260200182016040528015611bcd57816020015b6060815260200190600190039081611bb85790505b5095508751604051908082528060200260200182016040528015611c0557816020015b6060815260200190600190039081611bf05790505b5094508751604051908082528060200260200182016040528015611c3d57816020015b6060815260200190600190039081611c285790505b5093508751604051908082528060200260200182016040528015611c7557816020015b6060815260200190600190039081611c605790505b5092508751604051908082528060200260200182016040528015611cad57816020015b6060815260200190600190039081611c985790505b509150600090505b87518110156124cf57600360078983815181101515611cd057fe5b906020019060200201516040518082805190602001908083835b602083101515611d0f5780518252602082019150602081019050602083039250611cea565b6001836020036101000a038019825116818451168082178552505050505050905001915050908152602001604051809103902054815481101515611d4f57fe5b90600052602060002090600902016000018054600181600116156101000203166002900480601f016020809104026020016040519081016040528092919081815260200182805460018160011615610100020316600290048015611df45780601f10611dc957610100808354040283529160200191611df4565b820191906000526020600020905b815481529060010190602001808311611dd757829003601f168201915b50505050508782815181101515611e0757fe5b90602001906020020181905250600360078983815181101515611e2657fe5b906020019060200201516040518082805190602001908083835b602083101515611e655780518252602082019150602081019050602083039250611e40565b6001836020036101000a038019825116818451168082178552505050505050905001915050908152602001604051809103902054815481101515611ea557fe5b90600052602060002090600902016001018054600181600116156101000203166002900480601f016020809104026020016040519081016040528092919081815260200182805460018160011615610100020316600290048015611f4a5780601f10611f1f57610100808354040283529160200191611f4a565b820191906000526020600020905b815481529060010190602001808311611f2d57829003601f168201915b50505050508682815181101515611f5d57fe5b90602001906020020181905250600360078983815181101515611f7c57fe5b906020019060200201516040518082805190602001908083835b602083101515611fbb5780518252602082019150602081019050602083039250611f96565b6001836020036101000a038019825116818451168082178552505050505050905001915050908152602001604051809103902054815481101515611ffb57fe5b90600052602060002090600902016003018054600181600116156101000203166002900480601f0160208091040260200160405190810160405280929190818152602001828054600181600116156101000203166002900480156120a05780601f10612075576101008083540402835291602001916120a0565b820191906000526020600020905b81548152906001019060200180831161208357829003601f168201915b505050505085828151811015156120b357fe5b906020019060200201819052506003600789838151811015156120d257fe5b906020019060200201516040518082805190602001908083835b60208310151561211157805182526020820191506020810190506020830392506120ec565b6001836020036101000a03801982511681845116808217855250505050505090500191505090815260200160405180910390205481548110151561215157fe5b90600052602060002090600902016006018054600181600116156101000203166002900480601f0160208091040260200160405190810160405280929190818152602001828054600181600116156101000203166002900480156121f65780601f106121cb576101008083540402835291602001916121f6565b820191906000526020600020905b8154815290600101906020018083116121d957829003601f168201915b5050505050848281518110151561220957fe5b9060200190602002018190525060036007898381518110151561222857fe5b906020019060200201516040518082805190602001908083835b6020831015156122675780518252602082019150602081019050602083039250612242565b6001836020036101000a0380198251168184511680821785525050505050509050019150509081526020016040518091039020548154811015156122a757fe5b90600052602060002090600902016007018054600181600116156101000203166002900480601f01602080910402602001604051908101604052809291908181526020018280546001816001161561010002031660029004801561234c5780601f106123215761010080835404028352916020019161234c565b820191906000526020600020905b81548152906001019060200180831161232f57829003601f168201915b5050505050838281518110151561235f57fe5b9060200190602002018190525060036007898381518110151561237e57fe5b906020019060200201516040518082805190602001908083835b6020831015156123bd5780518252602082019150602081019050602083039250612398565b6001836020036101000a0380198251168184511680821785525050505050509050019150509081526020016040518091039020548154811015156123fd57fe5b90600052602060002090600902016008018054600181600116156101000203166002900480601f0160208091040260200160405190810160405280929190818152602001828054600181600116156101000203166002900480156124a25780601f10612477576101008083540402835291602001916124a2565b820191906000526020600020905b81548152906001019060200180831161248557829003601f168201915b505050505082828151811015156124b557fe5b906020019060200201819052508080600101915050611cb5565b8686868686869d509d509d509d509d509d50505050505050505091939550919395565b6060600a80548060200260200160405190810160405280929190818152602001828054801561254057602002820191906000526020600020905b81548152602001906001019080831161252c575b5050505050905090565b60008060009054906101000a900473ffffffffffffffffffffffffffffffffffffffff16905090565b60008060009054906101000a900473ffffffffffffffffffffffffffffffffffffffff1673ffffffffffffffffffffffffffffffffffffffff163373ffffffffffffffffffffffffffffffffffffffff1614905090565b8160036007856040518082805190602001908083835b60208310151561260557805182526020820191506020810190506020830392506125e0565b6001836020036101000a03801982511681845116808217855250505050505090500191505090815260200160405180910390205481548110151561264557fe5b90600052602060002090600902016007019080519060200190612669929190613469565b508060036007856040518082805190602001908083835b6020831015156126a55780518252602082019150602081019050602083039250612680565b6001836020036101000a0380198251168184511680821785525050505050509050019150509081526020016040518091039020548154811015156126e557fe5b90600052602060002090600902016008019080519060200190612709929190613469565b506002600a6007856040518082805190602001908083835b6020831015156127465780518252602082019150602081019050602083039250612721565b6001836020036101000a03801982511681845116808217855250505050505090500191505090815260200160405180910390205481548110151561278657fe5b90600052602060002001819055506008836040518082805190602001908083835b6020831015156127cc57805182526020820191506020810190506020830392506127a7565b6001836020036101000a038019825116818451168082178552505050505050905001915050908152602001604051809103902082908060018154018082558091505090600182039060005260206000200160009091929091909150908051906020019061283a929190613469565b5050505050565b60098181548110151561285057fe5b906000526020600020016000915090508054600181600116156101000203166002900480601f0160208091040260200160405190810160405280929190818152602001828054600181600116156101000203166002900480156128f45780601f106128c9576101008083540402835291602001916128f4565b820191906000526020600020905b8154815290600101906020018083116128d757829003601f168201915b505050505081565b60608060608060608061290d6134e9565b60036007896040518082805190602001908083835b6020831015156129475780518252602082019150602081019050602083039250612922565b6001836020036101000a03801982511681845116808217855250505050505090500191505090815260200160405180910390205481548110151561298757fe5b90600052602060002090600902016101206040519081016040529081600082018054600181600116156101000203166002900480601f016020809104026020016040519081016040528092919081815260200182805460018160011615610100020316600290048015612a3b5780601f10612a1057610100808354040283529160200191612a3b565b820191906000526020600020905b815481529060010190602001808311612a1e57829003601f168201915b50505050508152602001600182018054600181600116156101000203166002900480601f016020809104026020016040519081016040528092919081815260200182805460018160011615610100020316600290048015612add5780601f10612ab257610100808354040283529160200191612add565b820191906000526020600020905b815481529060010190602001808311612ac057829003601f168201915b50505050508152602001600282018054600181600116156101000203166002900480601f016020809104026020016040519081016040528092919081815260200182805460018160011615610100020316600290048015612b7f5780601f10612b5457610100808354040283529160200191612b7f565b820191906000526020600020905b815481529060010190602001808311612b6257829003601f168201915b50505050508152602001600382018054600181600116156101000203166002900480601f016020809104026020016040519081016040528092919081815260200182805460018160011615610100020316600290048015612c215780601f10612bf657610100808354040283529160200191612c21565b820191906000526020600020905b815481529060010190602001808311612c0457829003601f168201915b50505050508152602001600482018054600181600116156101000203166002900480601f016020809104026020016040519081016040528092919081815260200182805460018160011615610100020316600290048015612cc35780601f10612c9857610100808354040283529160200191612cc3565b820191906000526020600020905b815481529060010190602001808311612ca657829003601f168201915b50505050508152602001600582018054600181600116156101000203166002900480601f016020809104026020016040519081016040528092919081815260200182805460018160011615610100020316600290048015612d655780601f10612d3a57610100808354040283529160200191612d65565b820191906000526020600020905b815481529060010190602001808311612d4857829003601f168201915b50505050508152602001600682018054600181600116156101000203166002900480601f016020809104026020016040519081016040528092919081815260200182805460018160011615610100020316600290048015612e075780601f10612ddc57610100808354040283529160200191612e07565b820191906000526020600020905b815481529060010190602001808311612dea57829003601f168201915b50505050508152602001600782018054600181600116156101000203166002900480601f016020809104026020016040519081016040528092919081815260200182805460018160011615610100020316600290048015612ea95780601f10612e7e57610100808354040283529160200191612ea9565b820191906000526020600020905b815481529060010190602001808311612e8c57829003601f168201915b50505050508152602001600882018054600181600116156101000203166002900480601f016020809104026020016040519081016040528092919081815260200182805460018160011615610100020316600290048015612f4b5780601f10612f2057610100808354040283529160200191612f4b565b820191906000526020600020905b815481529060010190602001808311612f2e57829003601f168201915b50505050508152505090508781606001518260a001518360c001518460e001518561010001518494508393508292508191508090509650965096509650965096505091939550919395565b8060036007846040518082805190602001908083835b602083101515612fd15780518252602082019150602081019050602083039250612fac565b6001836020036101000a03801982511681845116808217855250505050505090500191505090815260200160405180910390205481548110151561301157fe5b90600052602060002090600902016006019080519060200190613035929190613469565b506001600a6007846040518082805190602001908083835b602083101515613072578051825260208201915060208101905060208303925061304d565b6001836020036101000a0380198251168184511680821785525050505050509050019150509081526020016040518091039020548154811015156130b257fe5b906000526020600020015411151561314f576001600a6007846040518082805190602001908083835b60208310151561310057805182526020820191506020810190506020830392506130db565b6001836020036101000a03801982511681845116808217855250505050505090500191505090815260200160405180910390205481548110151561314057fe5b90600052602060002001819055505b5050565b61315b612573565b151561316657600080fd5b61316f816132d5565b50565b60018181548110151561318157fe5b9060005260206000209060020201600091509050806000018054600181600116156101000203166002900480601f01602080910402602001604051908101604052809291908181526020018280546001816001161561010002031660029004801561322d5780601f106132025761010080835404028352916020019161322d565b820191906000526020600020905b81548152906001019060200180831161321057829003601f168201915b505050505090806001018054600181600116156101000203166002900480601f0160208091040260200160405190810160405280929190818152602001828054600181600116156101000203166002900480156132cb5780601f106132a0576101008083540402835291602001916132cb565b820191906000526020600020905b8154815290600101906020018083116132ae57829003601f168201915b5050505050905082565b600073ffffffffffffffffffffffffffffffffffffffff168173ffffffffffffffffffffffffffffffffffffffff161415151561331157600080fd5b8073ffffffffffffffffffffffffffffffffffffffff166000809054906101000a900473ffffffffffffffffffffffffffffffffffffffff1673ffffffffffffffffffffffffffffffffffffffff167f8be0079c531659141344cd1fd0a4f28419497f9722a3daafe3b4186f6b6457e060405160405180910390a3806000806101000a81548173ffffffffffffffffffffffffffffffffffffffff021916908373ffffffffffffffffffffffffffffffffffffffff16021790555050565b604080519081016040528060608152602001606081525090565b828054600181600116156101000203166002900490600052602060002090601f016020900481019282601f1061342a57805160ff1916838001178555613458565b82800160010185558215613458579182015b8281111561345757825182559160200191906001019061343c565b5b5090506134659190613536565b5090565b828054600181600116156101000203166002900490600052602060002090601f016020900481019282601f106134aa57805160ff19168380011785556134d8565b828001600101855582156134d8579182015b828111156134d75782518255916020019190600101906134bc565b5b5090506134e59190613536565b5090565b610120604051908101604052806060815260200160608152602001606081526020016060815260200160608152602001606081526020016060815260200160608152602001606081525090565b61355891905b8082111561355457600081600090555060010161353c565b5090565b90565b60006135678235613e0a565b905092915050565b600082601f830112151561358257600080fd5b813561359561359082613d48565b613d1b565b915080825260208301602083018583830111156135b157600080fd5b6135bc838284613e34565b50505092915050565b60006135d18235613e2a565b905092915050565b6000602082840312156135eb57600080fd5b60006135f98482850161355b565b91505092915050565b60006020828403121561361457600080fd5b600082013567ffffffffffffffff81111561362e57600080fd5b61363a8482850161356f565b91505092915050565b6000806040838503121561365657600080fd5b600083013567ffffffffffffffff81111561367057600080fd5b61367c8582860161356f565b925050602083013567ffffffffffffffff81111561369957600080fd5b6136a58582860161356f565b9150509250929050565b6000806000606084860312156136c457600080fd5b600084013567ffffffffffffffff8111156136de57600080fd5b6136ea8682870161356f565b935050602084013567ffffffffffffffff81111561370757600080fd5b6137138682870161356f565b925050604084013567ffffffffffffffff81111561373057600080fd5b61373c8682870161356f565b9150509250925092565b60008060008060008060c0878903121561375f57600080fd5b600087013567ffffffffffffffff81111561377957600080fd5b61378589828a0161356f565b965050602087013567ffffffffffffffff8111156137a257600080fd5b6137ae89828a0161356f565b955050604087013567ffffffffffffffff8111156137cb57600080fd5b6137d789828a0161356f565b945050606087013567ffffffffffffffff8111156137f457600080fd5b61380089828a0161356f565b935050608087013567ffffffffffffffff81111561381d57600080fd5b61382989828a0161356f565b92505060a087013567ffffffffffffffff81111561384657600080fd5b61385289828a0161356f565b9150509295509295509295565b60006020828403121561387157600080fd5b600061387f848285016135c5565b91505092915050565b61389181613dd4565b82525050565b60006138a282613d8e565b808452602084019350836020820285016138bb85613d74565b60005b848110156138f45783830388526138d68383516139a5565b92506138e182613dba565b91506020880197506001810190506138be565b508196508694505050505092915050565b600061391082613d99565b80845260208401935061392283613d81565b60005b82811015613954576139388683516139db565b61394182613dc7565b9150602086019550600181019050613925565b50849250505092915050565b61396981613df4565b82525050565b600061397a82613daf565b80845261398e816020860160208601613e43565b61399781613e76565b602085010191505092915050565b60006139b082613da4565b8084526139c4816020860160208601613e43565b6139cd81613e76565b602085010191505092915050565b6139e481613e00565b82525050565b60006020820190506139ff6000830184613888565b92915050565b60006020820190508181036000830152613a1f8184613897565b905092915050565b60006080820190508181036000830152613a418187613897565b90508181036020830152613a558186613897565b90508181036040830152613a698185613897565b90508181036060830152613a7d8184613897565b905095945050505050565b600060c0820190508181036000830152613aa28189613897565b90508181036020830152613ab68188613897565b90508181036040830152613aca8187613897565b90508181036060830152613ade8186613897565b90508181036080830152613af28185613897565b905081810360a0830152613b068184613897565b9050979650505050505050565b60006020820190508181036000830152613b2d8184613905565b905092915050565b6000602082019050613b4a6000830184613960565b92915050565b60006020820190508181036000830152613b6a81846139a5565b905092915050565b600060c0820190508181036000830152613b8c818961396f565b90508181036020830152613ba0818861396f565b90508181036040830152613bb4818761396f565b90508181036060830152613bc8818661396f565b90508181036080830152613bdc818561396f565b905081810360a0830152613bf0818461396f565b9050979650505050505050565b60006040820190508181036000830152613c1781856139a5565b90508181036020830152613c2b81846139a5565b90509392505050565b6000610120820190508181036000830152613c4f818c6139a5565b90508181036020830152613c63818b6139a5565b90508181036040830152613c77818a6139a5565b90508181036060830152613c8b81896139a5565b90508181036080830152613c9f81886139a5565b905081810360a0830152613cb381876139a5565b905081810360c0830152613cc781866139a5565b905081810360e0830152613cdb81856139a5565b9050818103610100830152613cf081846139a5565b90509a9950505050505050505050565b6000602082019050613d1560008301846139db565b92915050565b6000604051905081810181811067ffffffffffffffff82111715613d3e57600080fd5b8060405250919050565b600067ffffffffffffffff821115613d5f57600080fd5b601f19601f8301169050602081019050919050565b6000602082019050919050565b6000602082019050919050565b600081519050919050565b600081519050919050565b600081519050919050565b600081519050919050565b6000602082019050919050565b6000602082019050919050565b600073ffffffffffffffffffffffffffffffffffffffff82169050919050565b60008115159050919050565b6000819050919050565b600073ffffffffffffffffffffffffffffffffffffffff82169050919050565b6000819050919050565b82818337600083830152505050565b60005b83811015613e61578082015181840152602081019050613e46565b83811115613e70576000848401525b50505050565b6000601f19601f83011690509190505600a265627a7a723058209f21bd88dc0fe9eaa27ae5bdb778b0505a9c705c605aff7066a3109289056bf06c6578706572696d656e74616cf50037",
  "source": "pragma solidity ^0.4.24;\npragma experimental ABIEncoderV2;\nimport \"./ownable.sol\";\n\ncontract HappyAlliance is Ownable {\n\n\tstruct Donation {\n  \t// Do not record details in the blockchain\n  \tstring donationId; // donation Id\n  \tstring memberId; // member Id\n  }\n\n  Donation[] public donations; // donation array\n  mapping (string => string[]) memberToDonations;\n\n  struct Box {\n    string boxId; // box Id\n    string boxType; // box type such as KIDS\n    string generatedYear; // year that a box is generated\n    string serializedDonationsDetails; // originally string[] donationIds;\n    string expirationDate; // expiration date obtained from the minimum value out of donations\n    string npoInfo; // npo information\n    string npoReceivedTime; // check whether the npo receives\n    string recipientInfo; // information about last recipients\n    string recipientReceivedTime; // check whether the recipient receives\n  }\n\n  Box[] public boxes; // box array\n\n  mapping (string => uint) yearlyCounts;\n  mapping (string => string) boxToNPO;\n  mapping (string => string[]) npoToBoxIds;\n  mapping (string => uint) boxIdToIdx;\n  mapping (string => string[]) historyOfBox; // record whole destination history\n\n  string[] public boxIdList; // list of box ids\n\n  uint[] public boxStatus;\n\n  constructor () public {\n    // initialize the first box of which id is \"test\"\n    //sendBox(\"0\", 'serializedDonationsDetails', \"prisming\");\n    //addResult(\"0\", 'given to a 10-year old boy');\n    //sendBox(\"1\", 'serializedDonationsDetails', \"snpo\");\n    sendBox(\"initialize\", \"undefined\", \"undefined\", '[{\"undefined\": \"\"}]', \"null\", \"undefined\");\n    boxStatus[0] = 99;\n    donate(\"initialize\", \"noname\");\n  }\n\n  function donate (string _donationId, string _memberId) public {\n  \tDonation memory tmpDonation;\n  \ttmpDonation.donationId = _donationId;\n  \ttmpDonation.memberId = _memberId;\n    donations.push(tmpDonation);\n  \tmemberToDonations[_memberId].push(_donationId);\n  }\n\n  function sendBox (string _boxId, string _boxType, string _year, string _serializedDonationsDetails, string _expirationDate, string _npo) public {\n    Box memory tmpBox;\n    tmpBox.boxId = _boxId;\n    tmpBox.boxType = _boxType;\n    tmpBox.generatedYear = _year;\n    tmpBox.serializedDonationsDetails = _serializedDonationsDetails;\n    tmpBox.expirationDate = _expirationDate;\n    tmpBox.npoInfo = _npo;\n    tmpBox.npoReceivedTime = '';\n    tmpBox.recipientInfo = '';\n    tmpBox.recipientReceivedTime = '';\n\n    boxes.push(tmpBox);\n    boxStatus.push(0);\n\n    boxToNPO[_boxId] = _npo;\n    npoToBoxIds[_npo].push(_boxId);\n    boxIdToIdx[_boxId] = boxes.length - 1;\n    historyOfBox[_boxId].push(_npo);\n    boxIdList.push(_boxId);\n    yearlyCounts[_year]++;\n  }\n\n  // return all box ids;\n  function getBoxIds () public view returns(string[]){\n    return boxIdList;\n  }\n\n  // return the received history of a box\n  function getHistoryOfBox (string _boxId) public view returns(string[]){\n    return historyOfBox[_boxId];\n  }\n\n  // confirm that a npo receives a box\n  function npoConfirm (string _boxId, string _time) public {\n    boxes[boxIdToIdx[_boxId]].npoReceivedTime = _time;\n    if(boxStatus[boxIdToIdx[_boxId]]<=1){\n      boxStatus[boxIdToIdx[_boxId]] = 1;\n    }\n  }\n\n  // After a recipient receives the box and notifies this update to SK\n  function addRecipientInfo (string _boxId, string _recipientInfo, string _time) public {\n    boxes[boxIdToIdx[_boxId]].recipientInfo = _recipientInfo;\n    boxes[boxIdToIdx[_boxId]].recipientReceivedTime = _time;\n    boxStatus[boxIdToIdx[_boxId]] = 2;\n    historyOfBox[_boxId].push(_recipientInfo);\n  }\n\n  function getStatusForAll () public view returns (uint[]) {\n    return boxStatus;\n  }\n\n  // check box information\n  function viewBoxInformation (string _boxId) public view returns(string, string, string, string, string, string){\n    //require(boxes[boxIdToIdx[_boxId]].received == true, \"NPO does not receive the box yet.\");\n    Box memory targetBox = boxes[boxIdToIdx[_boxId]];\n    return (_boxId, targetBox.serializedDonationsDetails, targetBox.npoInfo, targetBox.npoReceivedTime, targetBox.recipientInfo, targetBox.recipientReceivedTime);\n  }\n\n  // mapping box id to index in 'boxes' array\n  function getIndexByBoxId (string _boxId) public view returns (uint) {\n    return boxIdToIdx[_boxId];\n  }\n\n  // get number of boxes by year\n  function getNumBoxesByYear (string _year) public view returns (uint) {\n    return yearlyCounts[_year];\n  }\n\n  function getBoxInfoByNPO (string _npo) public view returns (string[], string[], string[], string[], string[], string[]) {\n    string[] memory tmp = npoToBoxIds[_npo];\n\n    string[] memory list1 = new string[](tmp.length);\n    string[] memory list2 = new string[](tmp.length);\n    string[] memory list3 = new string[](tmp.length);\n    string[] memory list4 = new string[](tmp.length);\n    string[] memory list5 = new string[](tmp.length);\n    string[] memory list6 = new string[](tmp.length);\n\n    for(uint i=0; i<tmp.length; i++){\n      list1[i] = boxes[boxIdToIdx[tmp[i]]].boxId;\n      list2[i] = boxes[boxIdToIdx[tmp[i]]].boxType;\n      list3[i] = boxes[boxIdToIdx[tmp[i]]].serializedDonationsDetails;\n      list4[i] = boxes[boxIdToIdx[tmp[i]]].npoReceivedTime;\n      list5[i] = boxes[boxIdToIdx[tmp[i]]].recipientInfo;\n      list6[i] = boxes[boxIdToIdx[tmp[i]]].recipientReceivedTime;\n    }\n    return (list1, list2, list3, list4, list5, list6);\n  }\n\n\tfunction getAllBoxInfo () public view returns (string[], string[], string[], string[]){\n\t\tstring[] memory boxIds = getBoxIds();\n\t\tstring[] memory types = new string[](boxIds.length);\n\t\tstring[] memory donations = new string[](boxIds.length);\n\t\tstring[] memory npos = new string[](boxIds.length);\n\t\tfor(uint i=0; i<boxIds.length; i++){\n\t\t\ttypes[i] = boxes[boxIdToIdx[boxIds[i]]].boxType;\n\t\t\tdonations[i] = boxes[boxIdToIdx[boxIds[i]]].serializedDonationsDetails;\n\t\t\tnpos[i] = boxes[boxIdToIdx[boxIds[i]]].npoInfo;\n\t\t}\n\t\treturn (boxIds, types, donations, npos);\n\t}\n\n}\n",
  "sourcePath": "/Users/hyunuk/prismingSol/contracts/HappyAlliance.sol",
  "compiler": {
    "name": "solc",
    "version": "0.4.25+commit.59dbf8f1.Emscripten.clang"
  },
  "schemaVersion": "2.0.2",
  "updatedAt": "2019-04-07T02:20:54.571Z"
}