{
  "contractName": "HappyAlliance",
  "abi": [
    {
      "constant": true,
      "inputs": [
        {
          "name": "",
          "type": "uint256"
        }
      ],
      "name": "boxStatus",
      "outputs": [
        {
          "name": "",
          "type": "uint256"
        }
      ],
      "payable": false,
      "stateMutability": "view",
      "type": "function",
      "signature": "0x4ad62ae6"
    },
    {
      "constant": true,
      "inputs": [
        {
          "name": "",
          "type": "uint256"
        }
      ],
      "name": "boxes",
      "outputs": [
        {
          "name": "boxId",
          "type": "string"
        },
        {
          "name": "boxType",
          "type": "string"
        },
        {
          "name": "generatedYear",
          "type": "string"
        },
        {
          "name": "serializedDonationsDetails",
          "type": "string"
        },
        {
          "name": "expirationDate",
          "type": "string"
        },
        {
          "name": "npoInfo",
          "type": "string"
        },
        {
          "name": "npoReceivedTime",
          "type": "string"
        },
        {
          "name": "recipientInfo",
          "type": "string"
        },
        {
          "name": "recipientReceivedTime",
          "type": "string"
        }
      ],
      "payable": false,
      "stateMutability": "view",
      "type": "function",
      "signature": "0x4ed3faf2"
    },
    {
      "constant": false,
      "inputs": [],
      "name": "renounceOwnership",
      "outputs": [],
      "payable": false,
      "stateMutability": "nonpayable",
      "type": "function",
      "signature": "0x715018a6"
    },
    {
      "constant": true,
      "inputs": [],
      "name": "owner",
      "outputs": [
        {
          "name": "",
          "type": "address"
        }
      ],
      "payable": false,
      "stateMutability": "view",
      "type": "function",
      "signature": "0x8da5cb5b"
    },
    {
      "constant": true,
      "inputs": [],
      "name": "isOwner",
      "outputs": [
        {
          "name": "",
          "type": "bool"
        }
      ],
      "payable": false,
      "stateMutability": "view",
      "type": "function",
      "signature": "0x8f32d59b"
    },
    {
      "constant": true,
      "inputs": [
        {
          "name": "",
          "type": "uint256"
        }
      ],
      "name": "boxIdList",
      "outputs": [
        {
          "name": "",
          "type": "string"
        }
      ],
      "payable": false,
      "stateMutability": "view",
      "type": "function",
      "signature": "0xb31976b0"
    },
    {
      "constant": false,
      "inputs": [
        {
          "name": "newOwner",
          "type": "address"
        }
      ],
      "name": "transferOwnership",
      "outputs": [],
      "payable": false,
      "stateMutability": "nonpayable",
      "type": "function",
      "signature": "0xf2fde38b"
    },
    {
      "constant": true,
      "inputs": [
        {
          "name": "",
          "type": "uint256"
        }
      ],
      "name": "donations",
      "outputs": [
        {
          "name": "donationId",
          "type": "string"
        },
        {
          "name": "memberId",
          "type": "string"
        }
      ],
      "payable": false,
      "stateMutability": "view",
      "type": "function",
      "signature": "0xf8626af8"
    },
    {
      "inputs": [],
      "payable": false,
      "stateMutability": "nonpayable",
      "type": "constructor",
      "signature": "constructor"
    },
    {
      "anonymous": false,
      "inputs": [
        {
          "indexed": true,
          "name": "previousOwner",
          "type": "address"
        },
        {
          "indexed": true,
          "name": "newOwner",
          "type": "address"
        }
      ],
      "name": "OwnershipTransferred",
      "type": "event",
      "signature": "0x8be0079c531659141344cd1fd0a4f28419497f9722a3daafe3b4186f6b6457e0"
    },
    {
      "constant": false,
      "inputs": [
        {
          "name": "_donationId",
          "type": "string"
        },
        {
          "name": "_memberId",
          "type": "string"
        }
      ],
      "name": "donate",
      "outputs": [],
      "payable": false,
      "stateMutability": "nonpayable",
      "type": "function",
      "signature": "0x1653441c"
    },
    {
      "constant": false,
      "inputs": [
        {
          "name": "_boxId",
          "type": "string"
        },
        {
          "name": "_boxType",
          "type": "string"
        },
        {
          "name": "_year",
          "type": "string"
        },
        {
          "name": "_serializedDonationsDetails",
          "type": "string"
        },
        {
          "name": "_expirationDate",
          "type": "string"
        },
        {
          "name": "_npo",
          "type": "string"
        }
      ],
      "name": "sendBox",
      "outputs": [],
      "payable": false,
      "stateMutability": "nonpayable",
      "type": "function",
      "signature": "0x384e02aa"
    },
    {
      "constant": true,
      "inputs": [],
      "name": "getBoxIds",
      "outputs": [
        {
          "name": "",
          "type": "string[]"
        }
      ],
      "payable": false,
      "stateMutability": "view",
      "type": "function",
      "signature": "0x3d1819ad"
    },
    {
      "constant": true,
      "inputs": [
        {
          "name": "_boxId",
          "type": "string"
        }
      ],
      "name": "getHistoryOfBox",
      "outputs": [
        {
          "name": "",
          "type": "string[]"
        }
      ],
      "payable": false,
      "stateMutability": "view",
      "type": "function",
      "signature": "0x42a4539c"
    },
    {
      "constant": false,
      "inputs": [
        {
          "name": "_boxId",
          "type": "string"
        },
        {
          "name": "_time",
          "type": "string"
        }
      ],
      "name": "npoConfirm",
      "outputs": [],
      "payable": false,
      "stateMutability": "nonpayable",
      "type": "function",
      "signature": "0xc4d89b8f"
    },
    {
      "constant": false,
      "inputs": [
        {
          "name": "_boxId",
          "type": "string"
        },
        {
          "name": "_recipientInfo",
          "type": "string"
        },
        {
          "name": "_time",
          "type": "string"
        }
      ],
      "name": "addRecipientInfo",
      "outputs": [],
      "payable": false,
      "stateMutability": "nonpayable",
      "type": "function",
      "signature": "0x99102861"
    },
    {
      "constant": true,
      "inputs": [],
      "name": "getStatusForAll",
      "outputs": [
        {
          "name": "",
          "type": "uint256[]"
        }
      ],
      "payable": false,
      "stateMutability": "view",
      "type": "function",
      "signature": "0x8d6db855"
    },
    {
      "constant": true,
      "inputs": [
        {
          "name": "_boxId",
          "type": "string"
        }
      ],
      "name": "viewBoxInformation",
      "outputs": [
        {
          "name": "",
          "type": "string"
        },
        {
          "name": "",
          "type": "string"
        },
        {
          "name": "",
          "type": "string"
        },
        {
          "name": "",
          "type": "string"
        },
        {
          "name": "",
          "type": "string"
        },
        {
          "name": "",
          "type": "string"
        }
      ],
      "payable": false,
      "stateMutability": "view",
      "type": "function",
      "signature": "0xb4712f61"
    },
    {
      "constant": true,
      "inputs": [
        {
          "name": "_boxId",
          "type": "string"
        }
      ],
      "name": "getIndexByBoxId",
      "outputs": [
        {
          "name": "",
          "type": "uint256"
        }
      ],
      "payable": false,
      "stateMutability": "view",
      "type": "function",
      "signature": "0x675c9157"
    },
    {
      "constant": true,
      "inputs": [
        {
          "name": "_year",
          "type": "string"
        }
      ],
      "name": "getNumBoxesByYear",
      "outputs": [
        {
          "name": "",
          "type": "uint256"
        }
      ],
      "payable": false,
      "stateMutability": "view",
      "type": "function",
      "signature": "0x4c9e2eab"
    },
    {
      "constant": true,
      "inputs": [
        {
          "name": "_npo",
          "type": "string"
        }
      ],
      "name": "getBoxInfoByNPO",
      "outputs": [
        {
          "name": "",
          "type": "string[]"
        },
        {
          "name": "",
          "type": "string[]"
        },
        {
          "name": "",
          "type": "string[]"
        },
        {
          "name": "",
          "type": "string[]"
        },
        {
          "name": "",
          "type": "string[]"
        },
        {
          "name": "",
          "type": "string[]"
        }
      ],
      "payable": false,
      "stateMutability": "view",
      "type": "function",
      "signature": "0x775c96e9"
    }
  ],
  "bytecode": "0x60806040523480156200001157600080fd5b50336000806101000a81548173ffffffffffffffffffffffffffffffffffffffff021916908373ffffffffffffffffffffffffffffffffffffffff1602179055506000809054906101000a900473ffffffffffffffffffffffffffffffffffffffff1673ffffffffffffffffffffffffffffffffffffffff16600073ffffffffffffffffffffffffffffffffffffffff167f8be0079c531659141344cd1fd0a4f28419497f9722a3daafe3b4186f6b6457e060405160405180910390a36200022b6040805190810160405280600a81526020017f696e697469616c697a65000000000000000000000000000000000000000000008152506040805190810160405280600981526020017f756e646566696e656400000000000000000000000000000000000000000000008152506040805190810160405280600981526020017f756e646566696e656400000000000000000000000000000000000000000000008152506040805190810160405280601381526020017f5b7b22756e646566696e6564223a2022227d5d000000000000000000000000008152506040805190810160405280600481526020017f6e756c6c000000000000000000000000000000000000000000000000000000008152506040805190810160405280600981526020017f756e646566696e65640000000000000000000000000000000000000000000000815250620002d7640100000000026401000000009004565b6063600a60008154811015156200023e57fe5b9060005260206000200181905550620002d16040805190810160405280600a81526020017f696e697469616c697a65000000000000000000000000000000000000000000008152506040805190810160405280600681526020017f6e6f6e616d650000000000000000000000000000000000000000000000000000815250620007f6640100000000026401000000009004565b62000acf565b620002e162000932565b868160000181905250858160200181905250848160400181905250838160600181905250828160800181905250818160a0018190525060206040519081016040528060008152508160c0018190525060206040519081016040528060008152508160e001819052506020604051908101604052806000815250816101000181905250600381908060018154018082558091505090600182039060005260206000209060090201600090919290919091506000820151816000019080519060200190620003af9291906200097f565b506020820151816001019080519060200190620003ce9291906200097f565b506040820151816002019080519060200190620003ed9291906200097f565b5060608201518160030190805190602001906200040c9291906200097f565b5060808201518160040190805190602001906200042b9291906200097f565b5060a08201518160050190805190602001906200044a9291906200097f565b5060c0820151816006019080519060200190620004699291906200097f565b5060e0820151816007019080519060200190620004889291906200097f565b50610100820151816008019080519060200190620004a89291906200097f565b50505050600a60009080600181540180825580915050906001820390600052602060002001600090919290919091505550816005886040518082805190602001908083835b602083101515620005145780518252602082019150602081019050602083039250620004ed565b6001836020036101000a038019825116818451168082178552505050505050905001915050908152602001604051809103902090805190602001906200055c92919062000a06565b506006826040518082805190602001908083835b60208310151562000597578051825260208201915060208101905060208303925062000570565b6001836020036101000a03801982511681845116808217855250505050505090500191505090815260200160405180910390208790806001815401808255809150509060018203906000526020600020016000909192909190915090805190602001906200060792919062000a06565b50506001600380549050036007886040518082805190602001908083835b6020831015156200064c578051825260208201915060208101905060208303925062000625565b6001836020036101000a0380198251168184511680821785525050505050509050019150509081526020016040518091039020819055506008876040518082805190602001908083835b602083101515620006bd578051825260208201915060208101905060208303925062000696565b6001836020036101000a03801982511681845116808217855250505050505090500191505090815260200160405180910390208290806001815401808255809150509060018203906000526020600020016000909192909190915090805190602001906200072d92919062000a06565b505060098790806001815401808255809150509060018203906000526020600020016000909192909190915090805190602001906200076e92919062000a06565b50506004856040518082805190602001908083835b602083101515620007aa578051825260208201915060208101905060208303925062000783565b6001836020036101000a03801982511681845116808217855250505050505090500191505090815260200160405180910390206000815480929190600101919050555050505050505050565b6200080062000a8d565b8281600001819052508181602001819052506001819080600181540180825580915050906001820390600052602060002090600202016000909192909190915060008201518160000190805190602001906200085e9291906200097f565b5060208201518160010190805190602001906200087d9291906200097f565b505050506002826040518082805190602001908083835b602083101515620008bb578051825260208201915060208101905060208303925062000894565b6001836020036101000a03801982511681845116808217855250505050505090500191505090815260200160405180910390208390806001815401808255809150509060018203906000526020600020016000909192909190915090805190602001906200092b92919062000a06565b5050505050565b610120604051908101604052806060815260200160608152602001606081526020016060815260200160608152602001606081526020016060815260200160608152602001606081525090565b828054600181600116156101000203166002900490600052602060002090601f016020900481019282601f10620009c257805160ff1916838001178555620009f3565b82800160010185558215620009f3579182015b82811115620009f2578251825591602001919060010190620009d5565b5b50905062000a02919062000aa7565b5090565b828054600181600116156101000203166002900490600052602060002090601f016020900481019282601f1062000a4957805160ff191683800117855562000a7a565b8280016001018555821562000a7a579182015b8281111562000a7957825182559160200191906001019062000a5c565b5b50905062000a89919062000aa7565b5090565b604080519081016040528060608152602001606081525090565b62000acc91905b8082111562000ac857600081600090555060010162000aae565b5090565b90565b6138a48062000adf6000396000f300608060405260043610610107576000357c0100000000000000000000000000000000000000000000000000000000900463ffffffff1680631653441c1461010c578063384e02aa146101355780633d1819ad1461015e57806342a4539c146101895780634ad62ae6146101c65780634c9e2eab146102035780634ed3faf214610240578063675c915714610285578063715018a6146102c2578063775c96e9146102d95780638d6db8551461031b5780638da5cb5b146103465780638f32d59b14610371578063991028611461039c578063b31976b0146103c5578063b4712f6114610402578063c4d89b8f14610444578063f2fde38b1461046d578063f8626af814610496575b600080fd5b34801561011857600080fd5b50610133600480360361012e9190810190613087565b6104d4565b005b34801561014157600080fd5b5061015c6004803603610157919081019061318a565b610606565b005b34801561016a57600080fd5b50610173610aff565b6040516101809190613449565b60405180910390f35b34801561019557600080fd5b506101b060048036036101ab9190810190613046565b610be8565b6040516101bd9190613449565b60405180910390f35b3480156101d257600080fd5b506101ed60048036036101e891908101906132a3565b610d3c565b6040516101fa91906136e3565b60405180910390f35b34801561020f57600080fd5b5061022a60048036036102259190810190613046565b610d5f565b60405161023791906136e3565b60405180910390f35b34801561024c57600080fd5b50610267600480360361026291908101906132a3565b610dd4565b60405161027c99989796959493929190613617565b60405180910390f35b34801561029157600080fd5b506102ac60048036036102a79190810190613046565b611389565b6040516102b991906136e3565b60405180910390f35b3480156102ce57600080fd5b506102d76113fe565b005b3480156102e557600080fd5b5061030060048036036102fb9190810190613046565b6114d0565b6040516103129695949392919061346b565b60405180910390f35b34801561032757600080fd5b50610330611fc5565b60405161033d91906134f6565b60405180910390f35b34801561035257600080fd5b5061035b61201d565b604051610368919061342e565b60405180910390f35b34801561037d57600080fd5b50610386612046565b6040516103939190613518565b60405180910390f35b3480156103a857600080fd5b506103c360048036036103be91908101906130f3565b61209d565b005b3480156103d157600080fd5b506103ec60048036036103e791908101906132a3565b612314565b6040516103f99190613533565b60405180910390f35b34801561040e57600080fd5b5061042960048036036104249190810190613046565b6123cf565b60405161043b96959493929190613555565b60405180910390f35b34801561045057600080fd5b5061046b60048036036104669190810190613087565b612a69565b005b34801561047957600080fd5b50610494600480360361048f919081019061301d565b612b97565b005b3480156104a257600080fd5b506104bd60048036036104b891908101906132a3565b612bb6565b6040516104cb9291906135e0565b60405180910390f35b6104dc612e13565b828160000181905250818160200181905250600181908060018154018082558091505090600182039060005260206000209060020201600090919290919091506000820151816000019080519060200190610538929190612e2d565b506020820151816001019080519060200190610555929190612e2d565b505050506002826040518082805190602001908083835b602083101515610591578051825260208201915060208101905060208303925061056c565b6001836020036101000a03801982511681845116808217855250505050505090500191505090815260200160405180910390208390806001815401808255809150509060018203906000526020600020016000909192909190915090805190602001906105ff929190612ead565b5050505050565b61060e612f2d565b868160000181905250858160200181905250848160400181905250838160600181905250828160800181905250818160a0018190525060206040519081016040528060008152508160c0018190525060206040519081016040528060008152508160e0018190525060206040519081016040528060008152508161010001819052506003819080600181540180825580915050906001820390600052602060002090600902016000909192909190915060008201518160000190805190602001906106da929190612e2d565b5060208201518160010190805190602001906106f7929190612e2d565b506040820151816002019080519060200190610714929190612e2d565b506060820151816003019080519060200190610731929190612e2d565b50608082015181600401908051906020019061074e929190612e2d565b5060a082015181600501908051906020019061076b929190612e2d565b5060c0820151816006019080519060200190610788929190612e2d565b5060e08201518160070190805190602001906107a5929190612e2d565b506101008201518160080190805190602001906107c3929190612e2d565b50505050600a60009080600181540180825580915050906001820390600052602060002001600090919290919091505550816005886040518082805190602001908083835b60208310151561082d5780518252602082019150602081019050602083039250610808565b6001836020036101000a03801982511681845116808217855250505050505090500191505090815260200160405180910390209080519060200190610873929190612ead565b506006826040518082805190602001908083835b6020831015156108ac5780518252602082019150602081019050602083039250610887565b6001836020036101000a038019825116818451168082178552505050505050905001915050908152602001604051809103902087908060018154018082558091505090600182039060005260206000200160009091929091909150908051906020019061091a929190612ead565b50506001600380549050036007886040518082805190602001908083835b60208310151561095d5780518252602082019150602081019050602083039250610938565b6001836020036101000a0380198251168184511680821785525050505050509050019150509081526020016040518091039020819055506008876040518082805190602001908083835b6020831015156109cc57805182526020820191506020810190506020830392506109a7565b6001836020036101000a0380198251168184511680821785525050505050509050019150509081526020016040518091039020829080600181540180825580915050906001820390600052602060002001600090919290919091509080519060200190610a3a929190612ead565b50506009879080600181540180825580915050906001820390600052602060002001600090919290919091509080519060200190610a79929190612ead565b50506004856040518082805190602001908083835b602083101515610ab35780518252602082019150602081019050602083039250610a8e565b6001836020036101000a03801982511681845116808217855250505050505090500191505090815260200160405180910390206000815480929190600101919050555050505050505050565b60606009805480602002602001604051908101604052809291908181526020016000905b82821015610bdf578382906000526020600020018054600181600116156101000203166002900480601f016020809104026020016040519081016040528092919081815260200182805460018160011615610100020316600290048015610bcb5780601f10610ba057610100808354040283529160200191610bcb565b820191906000526020600020905b815481529060010190602001808311610bae57829003601f168201915b505050505081526020019060010190610b23565b50505050905090565b60606008826040518082805190602001908083835b602083101515610c225780518252602082019150602081019050602083039250610bfd565b6001836020036101000a0380198251168184511680821785525050505050509050019150509081526020016040518091039020805480602002602001604051908101604052809291908181526020016000905b82821015610d31578382906000526020600020018054600181600116156101000203166002900480601f016020809104026020016040519081016040528092919081815260200182805460018160011615610100020316600290048015610d1d5780601f10610cf257610100808354040283529160200191610d1d565b820191906000526020600020905b815481529060010190602001808311610d0057829003601f168201915b505050505081526020019060010190610c75565b505050509050919050565b600a81815481101515610d4b57fe5b906000526020600020016000915090505481565b60006004826040518082805190602001908083835b602083101515610d995780518252602082019150602081019050602083039250610d74565b6001836020036101000a0380198251168184511680821785525050505050509050019150509081526020016040518091039020549050919050565b600381815481101515610de357fe5b9060005260206000209060090201600091509050806000018054600181600116156101000203166002900480601f016020809104026020016040519081016040528092919081815260200182805460018160011615610100020316600290048015610e8f5780601f10610e6457610100808354040283529160200191610e8f565b820191906000526020600020905b815481529060010190602001808311610e7257829003601f168201915b505050505090806001018054600181600116156101000203166002900480601f016020809104026020016040519081016040528092919081815260200182805460018160011615610100020316600290048015610f2d5780601f10610f0257610100808354040283529160200191610f2d565b820191906000526020600020905b815481529060010190602001808311610f1057829003601f168201915b505050505090806002018054600181600116156101000203166002900480601f016020809104026020016040519081016040528092919081815260200182805460018160011615610100020316600290048015610fcb5780601f10610fa057610100808354040283529160200191610fcb565b820191906000526020600020905b815481529060010190602001808311610fae57829003601f168201915b505050505090806003018054600181600116156101000203166002900480601f0160208091040260200160405190810160405280929190818152602001828054600181600116156101000203166002900480156110695780601f1061103e57610100808354040283529160200191611069565b820191906000526020600020905b81548152906001019060200180831161104c57829003601f168201915b505050505090806004018054600181600116156101000203166002900480601f0160208091040260200160405190810160405280929190818152602001828054600181600116156101000203166002900480156111075780601f106110dc57610100808354040283529160200191611107565b820191906000526020600020905b8154815290600101906020018083116110ea57829003601f168201915b505050505090806005018054600181600116156101000203166002900480601f0160208091040260200160405190810160405280929190818152602001828054600181600116156101000203166002900480156111a55780601f1061117a576101008083540402835291602001916111a5565b820191906000526020600020905b81548152906001019060200180831161118857829003601f168201915b505050505090806006018054600181600116156101000203166002900480601f0160208091040260200160405190810160405280929190818152602001828054600181600116156101000203166002900480156112435780601f1061121857610100808354040283529160200191611243565b820191906000526020600020905b81548152906001019060200180831161122657829003601f168201915b505050505090806007018054600181600116156101000203166002900480601f0160208091040260200160405190810160405280929190818152602001828054600181600116156101000203166002900480156112e15780601f106112b6576101008083540402835291602001916112e1565b820191906000526020600020905b8154815290600101906020018083116112c457829003601f168201915b505050505090806008018054600181600116156101000203166002900480601f01602080910402602001604051908101604052809291908181526020018280546001816001161561010002031660029004801561137f5780601f106113545761010080835404028352916020019161137f565b820191906000526020600020905b81548152906001019060200180831161136257829003601f168201915b5050505050905089565b60006007826040518082805190602001908083835b6020831015156113c3578051825260208201915060208101905060208303925061139e565b6001836020036101000a0380198251168184511680821785525050505050509050019150509081526020016040518091039020549050919050565b611406612046565b151561141157600080fd5b600073ffffffffffffffffffffffffffffffffffffffff166000809054906101000a900473ffffffffffffffffffffffffffffffffffffffff1673ffffffffffffffffffffffffffffffffffffffff167f8be0079c531659141344cd1fd0a4f28419497f9722a3daafe3b4186f6b6457e060405160405180910390a360008060006101000a81548173ffffffffffffffffffffffffffffffffffffffff021916908373ffffffffffffffffffffffffffffffffffffffff160217905550565b6060806060806060806060806060806060806060600060068f6040518082805190602001908083835b60208310151561151e57805182526020820191506020810190506020830392506114f9565b6001836020036101000a0380198251168184511680821785525050505050509050019150509081526020016040518091039020805480602002602001604051908101604052809291908181526020016000905b8282101561162d578382906000526020600020018054600181600116156101000203166002900480601f0160208091040260200160405190810160405280929190818152602001828054600181600116156101000203166002900480156116195780601f106115ee57610100808354040283529160200191611619565b820191906000526020600020905b8154815290600101906020018083116115fc57829003601f168201915b505050505081526020019060010190611571565b505050509750875160405190808252806020026020018201604052801561166857816020015b60608152602001906001900390816116535790505b50965087516040519080825280602002602001820160405280156116a057816020015b606081526020019060019003908161168b5790505b50955087516040519080825280602002602001820160405280156116d857816020015b60608152602001906001900390816116c35790505b509450875160405190808252806020026020018201604052801561171057816020015b60608152602001906001900390816116fb5790505b509350875160405190808252806020026020018201604052801561174857816020015b60608152602001906001900390816117335790505b509250875160405190808252806020026020018201604052801561178057816020015b606081526020019060019003908161176b5790505b509150600090505b8751811015611fa2576003600789838151811015156117a357fe5b906020019060200201516040518082805190602001908083835b6020831015156117e257805182526020820191506020810190506020830392506117bd565b6001836020036101000a03801982511681845116808217855250505050505090500191505090815260200160405180910390205481548110151561182257fe5b90600052602060002090600902016000018054600181600116156101000203166002900480601f0160208091040260200160405190810160405280929190818152602001828054600181600116156101000203166002900480156118c75780601f1061189c576101008083540402835291602001916118c7565b820191906000526020600020905b8154815290600101906020018083116118aa57829003601f168201915b505050505087828151811015156118da57fe5b906020019060200201819052506003600789838151811015156118f957fe5b906020019060200201516040518082805190602001908083835b6020831015156119385780518252602082019150602081019050602083039250611913565b6001836020036101000a03801982511681845116808217855250505050505090500191505090815260200160405180910390205481548110151561197857fe5b90600052602060002090600902016001018054600181600116156101000203166002900480601f016020809104026020016040519081016040528092919081815260200182805460018160011615610100020316600290048015611a1d5780601f106119f257610100808354040283529160200191611a1d565b820191906000526020600020905b815481529060010190602001808311611a0057829003601f168201915b50505050508682815181101515611a3057fe5b90602001906020020181905250600360078983815181101515611a4f57fe5b906020019060200201516040518082805190602001908083835b602083101515611a8e5780518252602082019150602081019050602083039250611a69565b6001836020036101000a038019825116818451168082178552505050505050905001915050908152602001604051809103902054815481101515611ace57fe5b90600052602060002090600902016003018054600181600116156101000203166002900480601f016020809104026020016040519081016040528092919081815260200182805460018160011615610100020316600290048015611b735780601f10611b4857610100808354040283529160200191611b73565b820191906000526020600020905b815481529060010190602001808311611b5657829003601f168201915b50505050508582815181101515611b8657fe5b90602001906020020181905250600360078983815181101515611ba557fe5b906020019060200201516040518082805190602001908083835b602083101515611be45780518252602082019150602081019050602083039250611bbf565b6001836020036101000a038019825116818451168082178552505050505050905001915050908152602001604051809103902054815481101515611c2457fe5b90600052602060002090600902016006018054600181600116156101000203166002900480601f016020809104026020016040519081016040528092919081815260200182805460018160011615610100020316600290048015611cc95780601f10611c9e57610100808354040283529160200191611cc9565b820191906000526020600020905b815481529060010190602001808311611cac57829003601f168201915b50505050508482815181101515611cdc57fe5b90602001906020020181905250600360078983815181101515611cfb57fe5b906020019060200201516040518082805190602001908083835b602083101515611d3a5780518252602082019150602081019050602083039250611d15565b6001836020036101000a038019825116818451168082178552505050505050905001915050908152602001604051809103902054815481101515611d7a57fe5b90600052602060002090600902016007018054600181600116156101000203166002900480601f016020809104026020016040519081016040528092919081815260200182805460018160011615610100020316600290048015611e1f5780601f10611df457610100808354040283529160200191611e1f565b820191906000526020600020905b815481529060010190602001808311611e0257829003601f168201915b50505050508382815181101515611e3257fe5b90602001906020020181905250600360078983815181101515611e5157fe5b906020019060200201516040518082805190602001908083835b602083101515611e905780518252602082019150602081019050602083039250611e6b565b6001836020036101000a038019825116818451168082178552505050505050905001915050908152602001604051809103902054815481101515611ed057fe5b90600052602060002090600902016008018054600181600116156101000203166002900480601f016020809104026020016040519081016040528092919081815260200182805460018160011615610100020316600290048015611f755780601f10611f4a57610100808354040283529160200191611f75565b820191906000526020600020905b815481529060010190602001808311611f5857829003601f168201915b50505050508282815181101515611f8857fe5b906020019060200201819052508080600101915050611788565b8686868686869d509d509d509d509d509d50505050505050505091939550919395565b6060600a80548060200260200160405190810160405280929190818152602001828054801561201357602002820191906000526020600020905b815481526020019060010190808311611fff575b5050505050905090565b60008060009054906101000a900473ffffffffffffffffffffffffffffffffffffffff16905090565b60008060009054906101000a900473ffffffffffffffffffffffffffffffffffffffff1673ffffffffffffffffffffffffffffffffffffffff163373ffffffffffffffffffffffffffffffffffffffff1614905090565b8160036007856040518082805190602001908083835b6020831015156120d857805182526020820191506020810190506020830392506120b3565b6001836020036101000a03801982511681845116808217855250505050505090500191505090815260200160405180910390205481548110151561211857fe5b9060005260206000209060090201600701908051906020019061213c929190612ead565b508060036007856040518082805190602001908083835b6020831015156121785780518252602082019150602081019050602083039250612153565b6001836020036101000a0380198251168184511680821785525050505050509050019150509081526020016040518091039020548154811015156121b857fe5b906000526020600020906009020160080190805190602001906121dc929190612ead565b506002600a6007856040518082805190602001908083835b60208310151561221957805182526020820191506020810190506020830392506121f4565b6001836020036101000a03801982511681845116808217855250505050505090500191505090815260200160405180910390205481548110151561225957fe5b90600052602060002001819055506008836040518082805190602001908083835b60208310151561229f578051825260208201915060208101905060208303925061227a565b6001836020036101000a038019825116818451168082178552505050505050905001915050908152602001604051809103902082908060018154018082558091505090600182039060005260206000200160009091929091909150908051906020019061230d929190612ead565b5050505050565b60098181548110151561232357fe5b906000526020600020016000915090508054600181600116156101000203166002900480601f0160208091040260200160405190810160405280929190818152602001828054600181600116156101000203166002900480156123c75780601f1061239c576101008083540402835291602001916123c7565b820191906000526020600020905b8154815290600101906020018083116123aa57829003601f168201915b505050505081565b6060806060806060806123e0612f2d565b60036007896040518082805190602001908083835b60208310151561241a57805182526020820191506020810190506020830392506123f5565b6001836020036101000a03801982511681845116808217855250505050505090500191505090815260200160405180910390205481548110151561245a57fe5b90600052602060002090600902016101206040519081016040529081600082018054600181600116156101000203166002900480601f01602080910402602001604051908101604052809291908181526020018280546001816001161561010002031660029004801561250e5780601f106124e35761010080835404028352916020019161250e565b820191906000526020600020905b8154815290600101906020018083116124f157829003601f168201915b50505050508152602001600182018054600181600116156101000203166002900480601f0160208091040260200160405190810160405280929190818152602001828054600181600116156101000203166002900480156125b05780601f10612585576101008083540402835291602001916125b0565b820191906000526020600020905b81548152906001019060200180831161259357829003601f168201915b50505050508152602001600282018054600181600116156101000203166002900480601f0160208091040260200160405190810160405280929190818152602001828054600181600116156101000203166002900480156126525780601f1061262757610100808354040283529160200191612652565b820191906000526020600020905b81548152906001019060200180831161263557829003601f168201915b50505050508152602001600382018054600181600116156101000203166002900480601f0160208091040260200160405190810160405280929190818152602001828054600181600116156101000203166002900480156126f45780601f106126c9576101008083540402835291602001916126f4565b820191906000526020600020905b8154815290600101906020018083116126d757829003601f168201915b50505050508152602001600482018054600181600116156101000203166002900480601f0160208091040260200160405190810160405280929190818152602001828054600181600116156101000203166002900480156127965780601f1061276b57610100808354040283529160200191612796565b820191906000526020600020905b81548152906001019060200180831161277957829003601f168201915b50505050508152602001600582018054600181600116156101000203166002900480601f0160208091040260200160405190810160405280929190818152602001828054600181600116156101000203166002900480156128385780601f1061280d57610100808354040283529160200191612838565b820191906000526020600020905b81548152906001019060200180831161281b57829003601f168201915b50505050508152602001600682018054600181600116156101000203166002900480601f0160208091040260200160405190810160405280929190818152602001828054600181600116156101000203166002900480156128da5780601f106128af576101008083540402835291602001916128da565b820191906000526020600020905b8154815290600101906020018083116128bd57829003601f168201915b50505050508152602001600782018054600181600116156101000203166002900480601f01602080910402602001604051908101604052809291908181526020018280546001816001161561010002031660029004801561297c5780601f106129515761010080835404028352916020019161297c565b820191906000526020600020905b81548152906001019060200180831161295f57829003601f168201915b50505050508152602001600882018054600181600116156101000203166002900480601f016020809104026020016040519081016040528092919081815260200182805460018160011615610100020316600290048015612a1e5780601f106129f357610100808354040283529160200191612a1e565b820191906000526020600020905b815481529060010190602001808311612a0157829003601f168201915b50505050508152505090508781606001518260a001518360c001518460e001518561010001518494508393508292508191508090509650965096509650965096505091939550919395565b8060036007846040518082805190602001908083835b602083101515612aa45780518252602082019150602081019050602083039250612a7f565b6001836020036101000a038019825116818451168082178552505050505050905001915050908152602001604051809103902054815481101515612ae457fe5b90600052602060002090600902016006019080519060200190612b08929190612ead565b506001600a6007846040518082805190602001908083835b602083101515612b455780518252602082019150602081019050602083039250612b20565b6001836020036101000a038019825116818451168082178552505050505050905001915050908152602001604051809103902054815481101515612b8557fe5b90600052602060002001819055505050565b612b9f612046565b1515612baa57600080fd5b612bb381612d19565b50565b600181815481101515612bc557fe5b9060005260206000209060020201600091509050806000018054600181600116156101000203166002900480601f016020809104026020016040519081016040528092919081815260200182805460018160011615610100020316600290048015612c715780601f10612c4657610100808354040283529160200191612c71565b820191906000526020600020905b815481529060010190602001808311612c5457829003601f168201915b505050505090806001018054600181600116156101000203166002900480601f016020809104026020016040519081016040528092919081815260200182805460018160011615610100020316600290048015612d0f5780601f10612ce457610100808354040283529160200191612d0f565b820191906000526020600020905b815481529060010190602001808311612cf257829003601f168201915b5050505050905082565b600073ffffffffffffffffffffffffffffffffffffffff168173ffffffffffffffffffffffffffffffffffffffff1614151515612d5557600080fd5b8073ffffffffffffffffffffffffffffffffffffffff166000809054906101000a900473ffffffffffffffffffffffffffffffffffffffff1673ffffffffffffffffffffffffffffffffffffffff167f8be0079c531659141344cd1fd0a4f28419497f9722a3daafe3b4186f6b6457e060405160405180910390a3806000806101000a81548173ffffffffffffffffffffffffffffffffffffffff021916908373ffffffffffffffffffffffffffffffffffffffff16021790555050565b604080519081016040528060608152602001606081525090565b828054600181600116156101000203166002900490600052602060002090601f016020900481019282601f10612e6e57805160ff1916838001178555612e9c565b82800160010185558215612e9c579182015b82811115612e9b578251825591602001919060010190612e80565b5b509050612ea99190612f7a565b5090565b828054600181600116156101000203166002900490600052602060002090601f016020900481019282601f10612eee57805160ff1916838001178555612f1c565b82800160010185558215612f1c579182015b82811115612f1b578251825591602001919060010190612f00565b5b509050612f299190612f7a565b5090565b610120604051908101604052806060815260200160608152602001606081526020016060815260200160608152602001606081526020016060815260200160608152602001606081525090565b612f9c91905b80821115612f98576000816000905550600101612f80565b5090565b90565b6000612fab82356137ed565b905092915050565b600082601f8301121515612fc657600080fd5b8135612fd9612fd48261372b565b6136fe565b91508082526020830160208301858383011115612ff557600080fd5b613000838284613817565b50505092915050565b6000613015823561380d565b905092915050565b60006020828403121561302f57600080fd5b600061303d84828501612f9f565b91505092915050565b60006020828403121561305857600080fd5b600082013567ffffffffffffffff81111561307257600080fd5b61307e84828501612fb3565b91505092915050565b6000806040838503121561309a57600080fd5b600083013567ffffffffffffffff8111156130b457600080fd5b6130c085828601612fb3565b925050602083013567ffffffffffffffff8111156130dd57600080fd5b6130e985828601612fb3565b9150509250929050565b60008060006060848603121561310857600080fd5b600084013567ffffffffffffffff81111561312257600080fd5b61312e86828701612fb3565b935050602084013567ffffffffffffffff81111561314b57600080fd5b61315786828701612fb3565b925050604084013567ffffffffffffffff81111561317457600080fd5b61318086828701612fb3565b9150509250925092565b60008060008060008060c087890312156131a357600080fd5b600087013567ffffffffffffffff8111156131bd57600080fd5b6131c989828a01612fb3565b965050602087013567ffffffffffffffff8111156131e657600080fd5b6131f289828a01612fb3565b955050604087013567ffffffffffffffff81111561320f57600080fd5b61321b89828a01612fb3565b945050606087013567ffffffffffffffff81111561323857600080fd5b61324489828a01612fb3565b935050608087013567ffffffffffffffff81111561326157600080fd5b61326d89828a01612fb3565b92505060a087013567ffffffffffffffff81111561328a57600080fd5b61329689828a01612fb3565b9150509295509295509295565b6000602082840312156132b557600080fd5b60006132c384828501613009565b91505092915050565b6132d5816137b7565b82525050565b60006132e682613771565b808452602084019350836020820285016132ff85613757565b60005b8481101561333857838303885261331a8383516133e9565b92506133258261379d565b9150602088019750600181019050613302565b508196508694505050505092915050565b60006133548261377c565b80845260208401935061336683613764565b60005b828110156133985761337c86835161341f565b613385826137aa565b9150602086019550600181019050613369565b50849250505092915050565b6133ad816137d7565b82525050565b60006133be82613792565b8084526133d2816020860160208601613826565b6133db81613859565b602085010191505092915050565b60006133f482613787565b808452613408816020860160208601613826565b61341181613859565b602085010191505092915050565b613428816137e3565b82525050565b600060208201905061344360008301846132cc565b92915050565b6000602082019050818103600083015261346381846132db565b905092915050565b600060c082019050818103600083015261348581896132db565b9050818103602083015261349981886132db565b905081810360408301526134ad81876132db565b905081810360608301526134c181866132db565b905081810360808301526134d581856132db565b905081810360a08301526134e981846132db565b9050979650505050505050565b600060208201905081810360008301526135108184613349565b905092915050565b600060208201905061352d60008301846133a4565b92915050565b6000602082019050818103600083015261354d81846133e9565b905092915050565b600060c082019050818103600083015261356f81896133b3565b9050818103602083015261358381886133b3565b9050818103604083015261359781876133b3565b905081810360608301526135ab81866133b3565b905081810360808301526135bf81856133b3565b905081810360a08301526135d381846133b3565b9050979650505050505050565b600060408201905081810360008301526135fa81856133e9565b9050818103602083015261360e81846133e9565b90509392505050565b6000610120820190508181036000830152613632818c6133e9565b90508181036020830152613646818b6133e9565b9050818103604083015261365a818a6133e9565b9050818103606083015261366e81896133e9565b9050818103608083015261368281886133e9565b905081810360a083015261369681876133e9565b905081810360c08301526136aa81866133e9565b905081810360e08301526136be81856133e9565b90508181036101008301526136d381846133e9565b90509a9950505050505050505050565b60006020820190506136f8600083018461341f565b92915050565b6000604051905081810181811067ffffffffffffffff8211171561372157600080fd5b8060405250919050565b600067ffffffffffffffff82111561374257600080fd5b601f19601f8301169050602081019050919050565b6000602082019050919050565b6000602082019050919050565b600081519050919050565b600081519050919050565b600081519050919050565b600081519050919050565b6000602082019050919050565b6000602082019050919050565b600073ffffffffffffffffffffffffffffffffffffffff82169050919050565b60008115159050919050565b6000819050919050565b600073ffffffffffffffffffffffffffffffffffffffff82169050919050565b6000819050919050565b82818337600083830152505050565b60005b83811015613844578082015181840152602081019050613829565b83811115613853576000848401525b50505050565b6000601f19601f83011690509190505600a265627a7a72305820461e4d66a40212bd8d41ee91eb10a4c5a8a8cab7bf91c044efe2a5172ab869c06c6578706572696d656e74616cf50037",
  "source": "pragma solidity ^0.4.24;\npragma experimental ABIEncoderV2;\nimport \"./ownable.sol\";\n\ncontract HappyAlliance is Ownable {\n\n\tstruct Donation {\n  \t// Do not record details in the blockchain\n  \tstring donationId; // donation Id\n  \tstring memberId; // member Id\n  }\n\n  Donation[] public donations; // donation array\n  mapping (string => string[]) memberToDonations;\n\n  struct Box {\n    string boxId; // box Id\n    string boxType; // box type such as KIDS\n    string generatedYear; // year that a box is generated \n    string serializedDonationsDetails; // originally string[] donationIds;\n    string expirationDate; // expiration date obtained from the minimum value out of donations\n    string npoInfo; // npo information\n    string npoReceivedTime; // check whether the npo receives\n    string recipientInfo; // information about last recipients     \n    string recipientReceivedTime; // check whether the recipient receives    \n  }\n\n  Box[] public boxes; // box array\n\n  mapping (string => uint) yearlyCounts;\n  mapping (string => string) boxToNPO;\n  mapping (string => string[]) npoToBoxIds;\n  mapping (string => uint) boxIdToIdx;  \n  mapping (string => string[]) historyOfBox; // record whole destination history\n\n  string[] public boxIdList; // list of box ids\n\n  uint[] public boxStatus;\n\n  constructor () public {\n    // initialize the first box of which id is \"test\"\n    //sendBox(\"0\", 'serializedDonationsDetails', \"prisming\");\n    //addResult(\"0\", 'given to a 10-year old boy');\n    //sendBox(\"1\", 'serializedDonationsDetails', \"snpo\");\n    sendBox(\"initialize\", \"undefined\", \"undefined\", '[{\"undefined\": \"\"}]', \"null\", \"undefined\");\n    boxStatus[0] = 99;\n    donate(\"initialize\", \"noname\");\n  }\n\n  function donate (string _donationId, string _memberId) public {\n  \tDonation memory tmpDonation;\n  \ttmpDonation.donationId = _donationId;\n  \ttmpDonation.memberId = _memberId;\n    donations.push(tmpDonation);\n  \tmemberToDonations[_memberId].push(_donationId);\n  }\n\n  function sendBox (string _boxId, string _boxType, string _year, string _serializedDonationsDetails, string _expirationDate, string _npo) public {    \n    Box memory tmpBox;\n    tmpBox.boxId = _boxId;\n    tmpBox.boxType = _boxType;\n    tmpBox.generatedYear = _year;\n    tmpBox.serializedDonationsDetails = _serializedDonationsDetails;\n    tmpBox.expirationDate = _expirationDate;\n    tmpBox.npoInfo = _npo;\n    tmpBox.npoReceivedTime = '';    \n    tmpBox.recipientInfo = '';    \n    tmpBox.recipientReceivedTime = '';    \n\n    boxes.push(tmpBox);\n    boxStatus.push(0);\n\n    boxToNPO[_boxId] = _npo;\n    npoToBoxIds[_npo].push(_boxId);\n    boxIdToIdx[_boxId] = boxes.length - 1;\n    historyOfBox[_boxId].push(_npo);\n    boxIdList.push(_boxId);\n    yearlyCounts[_year]++;\n  }\n\n  // return all box ids;\n  function getBoxIds () public view returns(string[]){\n    return boxIdList;\n  }\n\n  // return the received history of a box\n  function getHistoryOfBox (string _boxId) public view returns(string[]){\n    return historyOfBox[_boxId];\n  }\n\n  // confirm that a npo receives a box\n  function npoConfirm (string _boxId, string _time) public {\n    boxes[boxIdToIdx[_boxId]].npoReceivedTime = _time;\n    boxStatus[boxIdToIdx[_boxId]] = 1;\n  }\n\n  // After a recipient receives the box and notifies this update to SK\n  function addRecipientInfo (string _boxId, string _recipientInfo, string _time) public {\n    boxes[boxIdToIdx[_boxId]].recipientInfo = _recipientInfo;\n    boxes[boxIdToIdx[_boxId]].recipientReceivedTime = _time;    \n    boxStatus[boxIdToIdx[_boxId]] = 2;\n    historyOfBox[_boxId].push(_recipientInfo);\n  }\n\n  function getStatusForAll () public view returns (uint[]) {\n    return boxStatus;\n  }\n\n  // check box information\n  function viewBoxInformation (string _boxId) public view returns(string, string, string, string, string, string){\n    //require(boxes[boxIdToIdx[_boxId]].received == true, \"NPO does not receive the box yet.\");\n    Box memory targetBox = boxes[boxIdToIdx[_boxId]];\n    return (_boxId, targetBox.serializedDonationsDetails, targetBox.npoInfo, targetBox.npoReceivedTime, targetBox.recipientInfo, targetBox.recipientReceivedTime);\n  }\n\n  // mapping box id to index in 'boxes' array\n  function getIndexByBoxId (string _boxId) public view returns (uint) {\n    return boxIdToIdx[_boxId];\n  }\n\n  // get number of boxes by year\n  function getNumBoxesByYear (string _year) public view returns (uint) {\n    return yearlyCounts[_year];\n  }\n\n  function getBoxInfoByNPO (string _npo) public view returns (string[], string[], string[], string[], string[], string[]) {\n    string[] memory tmp = npoToBoxIds[_npo];\n\n    string[] memory list1 = new string[](tmp.length);\n    string[] memory list2 = new string[](tmp.length);\n    string[] memory list3 = new string[](tmp.length);\n    string[] memory list4 = new string[](tmp.length);\n    string[] memory list5 = new string[](tmp.length);\n    string[] memory list6 = new string[](tmp.length);\n\n    for(uint i=0; i<tmp.length; i++){\n      list1[i] = boxes[boxIdToIdx[tmp[i]]].boxId;\n      list2[i] = boxes[boxIdToIdx[tmp[i]]].boxType;\n      list3[i] = boxes[boxIdToIdx[tmp[i]]].serializedDonationsDetails;\n      list4[i] = boxes[boxIdToIdx[tmp[i]]].npoReceivedTime;\n      list5[i] = boxes[boxIdToIdx[tmp[i]]].recipientInfo;\n      list6[i] = boxes[boxIdToIdx[tmp[i]]].recipientReceivedTime;      \n    }\n    return (list1, list2, list3, list4, list5, list6);\n  }\n\n}\n",
  "sourcePath": "/Users/hyunuk/prismingSol/contracts/HappyAlliance.sol",
  "compiler": {
    "name": "solc",
    "version": "0.4.24+commit.e67f0147.Emscripten.clang"
  },
  "schemaVersion": "3.0.2",
  "updatedAt": "2019-04-01T12:48:25.852Z",
  "devdoc": {
    "methods": {
      "isOwner()": {
        "return": "true if `msg.sender` is the owner of the contract."
      },
      "owner()": {
        "return": "the address of the owner."
      },
      "renounceOwnership()": {
        "details": "Allows the current owner to relinquish control of the contract."
      },
      "transferOwnership(address)": {
        "details": "Allows the current owner to transfer control of the contract to a newOwner.",
        "params": {
          "newOwner": "The address to transfer ownership to."
        }
      }
    }
  },
  "userdoc": {
    "methods": {
      "renounceOwnership()": {
        "notice": "Renouncing to ownership will leave the contract without an owner. It will not be possible to call the functions with the `onlyOwner` modifier anymore."
      }
    }
  }
}