{
  "contractName": "HappyAlliance",
  "abi": [
    {
      "constant": true,
      "inputs": [
        {
          "name": "",
          "type": "uint256"
        }
      ],
      "name": "boxStatus",
      "outputs": [
        {
          "name": "",
          "type": "uint256"
        }
      ],
      "payable": false,
      "stateMutability": "view",
      "type": "function"
    },
    {
      "constant": true,
      "inputs": [
        {
          "name": "",
          "type": "uint256"
        }
      ],
      "name": "boxes",
      "outputs": [
        {
          "name": "boxId",
          "type": "string"
        },
        {
          "name": "boxType",
          "type": "string"
        },
        {
          "name": "generatedYear",
          "type": "string"
        },
        {
          "name": "serializedDonationsDetails",
          "type": "string"
        },
        {
          "name": "expirationDate",
          "type": "string"
        },
        {
          "name": "npoInfo",
          "type": "string"
        },
        {
          "name": "npoReceivedTime",
          "type": "string"
        },
        {
          "name": "recipientInfo",
          "type": "string"
        },
        {
          "name": "recipientReceivedTime",
          "type": "string"
        }
      ],
      "payable": false,
      "stateMutability": "view",
      "type": "function"
    },
    {
      "constant": false,
      "inputs": [],
      "name": "renounceOwnership",
      "outputs": [],
      "payable": false,
      "stateMutability": "nonpayable",
      "type": "function"
    },
    {
      "constant": true,
      "inputs": [],
      "name": "owner",
      "outputs": [
        {
          "name": "",
          "type": "address"
        }
      ],
      "payable": false,
      "stateMutability": "view",
      "type": "function"
    },
    {
      "constant": true,
      "inputs": [],
      "name": "isOwner",
      "outputs": [
        {
          "name": "",
          "type": "bool"
        }
      ],
      "payable": false,
      "stateMutability": "view",
      "type": "function"
    },
    {
      "constant": true,
      "inputs": [
        {
          "name": "",
          "type": "uint256"
        }
      ],
      "name": "boxIdList",
      "outputs": [
        {
          "name": "",
          "type": "string"
        }
      ],
      "payable": false,
      "stateMutability": "view",
      "type": "function"
    },
    {
      "constant": false,
      "inputs": [
        {
          "name": "newOwner",
          "type": "address"
        }
      ],
      "name": "transferOwnership",
      "outputs": [],
      "payable": false,
      "stateMutability": "nonpayable",
      "type": "function"
    },
    {
      "constant": true,
      "inputs": [
        {
          "name": "",
          "type": "uint256"
        }
      ],
      "name": "donations",
      "outputs": [
        {
          "name": "donationId",
          "type": "string"
        },
        {
          "name": "memberId",
          "type": "string"
        },
        {
          "name": "openInfo",
          "type": "string"
        }
      ],
      "payable": false,
      "stateMutability": "view",
      "type": "function"
    },
    {
      "inputs": [],
      "payable": false,
      "stateMutability": "nonpayable",
      "type": "constructor"
    },
    {
      "anonymous": false,
      "inputs": [
        {
          "indexed": true,
          "name": "previousOwner",
          "type": "address"
        },
        {
          "indexed": true,
          "name": "newOwner",
          "type": "address"
        }
      ],
      "name": "OwnershipTransferred",
      "type": "event"
    },
    {
      "constant": false,
      "inputs": [
        {
          "name": "_donationId",
          "type": "string"
        },
        {
          "name": "_memberId",
          "type": "string"
        },
        {
          "name": "_openInfo",
          "type": "string"
        }
      ],
      "name": "donate",
      "outputs": [],
      "payable": false,
      "stateMutability": "nonpayable",
      "type": "function"
    },
    {
      "constant": false,
      "inputs": [
        {
          "name": "_boxId",
          "type": "string"
        },
        {
          "name": "_boxType",
          "type": "string"
        },
        {
          "name": "_year",
          "type": "string"
        },
        {
          "name": "_serializedDonationsDetails",
          "type": "string"
        },
        {
          "name": "_expirationDate",
          "type": "string"
        },
        {
          "name": "_npo",
          "type": "string"
        }
      ],
      "name": "sendBox",
      "outputs": [],
      "payable": false,
      "stateMutability": "nonpayable",
      "type": "function"
    },
    {
      "constant": true,
      "inputs": [],
      "name": "getBoxIds",
      "outputs": [
        {
          "name": "",
          "type": "string[]"
        }
      ],
      "payable": false,
      "stateMutability": "view",
      "type": "function"
    },
    {
      "constant": true,
      "inputs": [
        {
          "name": "_boxId",
          "type": "string"
        }
      ],
      "name": "getHistoryOfBox",
      "outputs": [
        {
          "name": "",
          "type": "string[]"
        }
      ],
      "payable": false,
      "stateMutability": "view",
      "type": "function"
    },
    {
      "constant": false,
      "inputs": [
        {
          "name": "_boxId",
          "type": "string"
        },
        {
          "name": "_time",
          "type": "string"
        }
      ],
      "name": "npoConfirm",
      "outputs": [],
      "payable": false,
      "stateMutability": "nonpayable",
      "type": "function"
    },
    {
      "constant": false,
      "inputs": [
        {
          "name": "_boxId",
          "type": "string"
        },
        {
          "name": "_recipientInfo",
          "type": "string"
        },
        {
          "name": "_time",
          "type": "string"
        }
      ],
      "name": "addRecipientInfo",
      "outputs": [],
      "payable": false,
      "stateMutability": "nonpayable",
      "type": "function"
    },
    {
      "constant": true,
      "inputs": [],
      "name": "getStatusForAll",
      "outputs": [
        {
          "name": "",
          "type": "uint256[]"
        }
      ],
      "payable": false,
      "stateMutability": "view",
      "type": "function"
    },
    {
      "constant": true,
      "inputs": [
        {
          "name": "_boxId",
          "type": "string"
        }
      ],
      "name": "viewBoxInformation",
      "outputs": [
        {
          "name": "",
          "type": "string"
        },
        {
          "name": "",
          "type": "string"
        },
        {
          "name": "",
          "type": "string"
        },
        {
          "name": "",
          "type": "string"
        },
        {
          "name": "",
          "type": "string"
        },
        {
          "name": "",
          "type": "string"
        }
      ],
      "payable": false,
      "stateMutability": "view",
      "type": "function"
    },
    {
      "constant": true,
      "inputs": [
        {
          "name": "_boxId",
          "type": "string"
        }
      ],
      "name": "getIndexByBoxId",
      "outputs": [
        {
          "name": "",
          "type": "uint256"
        }
      ],
      "payable": false,
      "stateMutability": "view",
      "type": "function"
    },
    {
      "constant": true,
      "inputs": [
        {
          "name": "_year",
          "type": "string"
        }
      ],
      "name": "getNumBoxesByYear",
      "outputs": [
        {
          "name": "",
          "type": "uint256"
        }
      ],
      "payable": false,
      "stateMutability": "view",
      "type": "function"
    },
    {
      "constant": true,
      "inputs": [
        {
          "name": "_npo",
          "type": "string"
        }
      ],
      "name": "getBoxInfoByNPO",
      "outputs": [
        {
          "name": "",
          "type": "string[]"
        },
        {
          "name": "",
          "type": "string[]"
        },
        {
          "name": "",
          "type": "string[]"
        },
        {
          "name": "",
          "type": "string[]"
        },
        {
          "name": "",
          "type": "string[]"
        },
        {
          "name": "",
          "type": "string[]"
        }
      ],
      "payable": false,
      "stateMutability": "view",
      "type": "function"
    },
    {
      "constant": true,
      "inputs": [],
      "name": "getAllBoxInfo",
      "outputs": [
        {
          "name": "",
          "type": "string[]"
        },
        {
          "name": "",
          "type": "string[]"
        },
        {
          "name": "",
          "type": "string[]"
        },
        {
          "name": "",
          "type": "string[]"
        }
      ],
      "payable": false,
      "stateMutability": "view",
      "type": "function"
    }
  ],
  "bytecode": "0x60806040523480156200001157600080fd5b50336000806101000a81548173ffffffffffffffffffffffffffffffffffffffff021916908373ffffffffffffffffffffffffffffffffffffffff1602179055506000809054906101000a900473ffffffffffffffffffffffffffffffffffffffff1673ffffffffffffffffffffffffffffffffffffffff16600073ffffffffffffffffffffffffffffffffffffffff167f8be0079c531659141344cd1fd0a4f28419497f9722a3daafe3b4186f6b6457e060405160405180910390a36200022b6040805190810160405280600a81526020017f696e697469616c697a65000000000000000000000000000000000000000000008152506040805190810160405280600981526020017f756e646566696e656400000000000000000000000000000000000000000000008152506040805190810160405280600981526020017f756e646566696e656400000000000000000000000000000000000000000000008152506040805190810160405280601381526020017f5b7b22756e646566696e6564223a2022227d5d000000000000000000000000008152506040805190810160405280600481526020017f6e756c6c000000000000000000000000000000000000000000000000000000008152506040805190810160405280600981526020017f756e646566696e656400000000000000000000000000000000000000000000008152506200030d640100000000026401000000009004565b6063600a60008154811015156200023e57fe5b9060005260206000200181905550620003076040805190810160405280600a81526020017f696e697469616c697a65000000000000000000000000000000000000000000008152506040805190810160405280600681526020017f6e6f6e616d6500000000000000000000000000000000000000000000000000008152506040805190810160405280600681526020017f6e6f496e666f00000000000000000000000000000000000000000000000000008152506200082c640100000000026401000000009004565b62000b36565b6200031762000991565b868160000181905250858160200181905250848160400181905250838160600181905250828160800181905250818160a0018190525060206040519081016040528060008152508160c0018190525060206040519081016040528060008152508160e001819052506020604051908101604052806000815250816101000181905250600381908060018154018082558091505090600182039060005260206000209060090201600090919290919091506000820151816000019080519060200190620003e5929190620009de565b50602082015181600101908051906020019062000404929190620009de565b50604082015181600201908051906020019062000423929190620009de565b50606082015181600301908051906020019062000442929190620009de565b50608082015181600401908051906020019062000461929190620009de565b5060a082015181600501908051906020019062000480929190620009de565b5060c08201518160060190805190602001906200049f929190620009de565b5060e0820151816007019080519060200190620004be929190620009de565b50610100820151816008019080519060200190620004de929190620009de565b50505050600a60009080600181540180825580915050906001820390600052602060002001600090919290919091505550816005886040518082805190602001908083835b6020831015156200054a578051825260208201915060208101905060208303925062000523565b6001836020036101000a038019825116818451168082178552505050505050905001915050908152602001604051809103902090805190602001906200059292919062000a65565b506006826040518082805190602001908083835b602083101515620005cd5780518252602082019150602081019050602083039250620005a6565b6001836020036101000a03801982511681845116808217855250505050505090500191505090815260200160405180910390208790806001815401808255809150509060018203906000526020600020016000909192909190915090805190602001906200063d92919062000a65565b50506001600380549050036007886040518082805190602001908083835b6020831015156200068257805182526020820191506020810190506020830392506200065b565b6001836020036101000a0380198251168184511680821785525050505050509050019150509081526020016040518091039020819055506008876040518082805190602001908083835b602083101515620006f35780518252602082019150602081019050602083039250620006cc565b6001836020036101000a03801982511681845116808217855250505050505090500191505090815260200160405180910390208290806001815401808255809150509060018203906000526020600020016000909192909190915090805190602001906200076392919062000a65565b50506009879080600181540180825580915050906001820390600052602060002001600090919290919091509080519060200190620007a492919062000a65565b50506004856040518082805190602001908083835b602083101515620007e05780518252602082019150602081019050602083039250620007b9565b6001836020036101000a03801982511681845116808217855250505050505090500191505090815260200160405180910390206000815480929190600101919050555050505050505050565b6200083662000aec565b8381600001819052508281602001819052508181604001819052506001819080600181540180825580915050906001820390600052602060002090600302016000909192909190915060008201518160000190805190602001906200089d929190620009de565b506020820151816001019080519060200190620008bc929190620009de565b506040820151816002019080519060200190620008db929190620009de565b505050506002836040518082805190602001908083835b602083101515620009195780518252602082019150602081019050602083039250620008f2565b6001836020036101000a03801982511681845116808217855250505050505090500191505090815260200160405180910390208490806001815401808255809150509060018203906000526020600020016000909192909190915090805190602001906200098992919062000a65565b505050505050565b610120604051908101604052806060815260200160608152602001606081526020016060815260200160608152602001606081526020016060815260200160608152602001606081525090565b828054600181600116156101000203166002900490600052602060002090601f016020900481019282601f1062000a2157805160ff191683800117855562000a52565b8280016001018555821562000a52579182015b8281111562000a5157825182559160200191906001019062000a34565b5b50905062000a61919062000b0e565b5090565b828054600181600116156101000203166002900490600052602060002090601f016020900481019282601f1062000aa857805160ff191683800117855562000ad9565b8280016001018555821562000ad9579182015b8281111562000ad857825182559160200191906001019062000abb565b5b50905062000ae8919062000b0e565b5090565b6060604051908101604052806060815260200160608152602001606081525090565b62000b3391905b8082111562000b2f57600081600090555060010162000b15565b5090565b90565b613fa48062000b466000396000f300608060405260043610610112576000357c0100000000000000000000000000000000000000000000000000000000900463ffffffff168063384e02aa146101175780633d1819ad1461014057806342a4539c1461016b5780634aa57307146101a85780634ad62ae6146101d65780634c9e2eab146102135780634ed3faf214610250578063675c915714610295578063715018a6146102d2578063775c96e9146102e95780638bf206491461032b5780638d6db855146103545780638da5cb5b1461037f5780638f32d59b146103aa57806399102861146103d5578063b31976b0146103fe578063b4712f611461043b578063c4d89b8f1461047d578063f2fde38b146104a6578063f8626af8146104cf575b600080fd5b34801561012357600080fd5b5061013e60048036036101399190810190613814565b61050e565b005b34801561014c57600080fd5b50610155610a07565b6040516101629190613ad3565b60405180910390f35b34801561017757600080fd5b50610192600480360361018d91908101906136d0565b610af0565b60405161019f9190613ad3565b60405180910390f35b3480156101b457600080fd5b506101bd610c44565b6040516101cd9493929190613af5565b60405180910390f35b3480156101e257600080fd5b506101fd60048036036101f8919081019061392d565b611138565b60405161020a9190613de3565b60405180910390f35b34801561021f57600080fd5b5061023a600480360361023591908101906136d0565b61115b565b6040516102479190613de3565b60405180910390f35b34801561025c57600080fd5b506102776004803603610272919081019061392d565b6111d0565b60405161028c99989796959493929190613d17565b60405180910390f35b3480156102a157600080fd5b506102bc60048036036102b791908101906136d0565b611785565b6040516102c99190613de3565b60405180910390f35b3480156102de57600080fd5b506102e76117fa565b005b3480156102f557600080fd5b50610310600480360361030b91908101906136d0565b6118cc565b60405161032296959493929190613b56565b60405180910390f35b34801561033757600080fd5b50610352600480360361034d919081019061377d565b6123c1565b005b34801561036057600080fd5b5061036961251a565b6040516103769190613be1565b60405180910390f35b34801561038b57600080fd5b50610394612572565b6040516103a19190613ab8565b60405180910390f35b3480156103b657600080fd5b506103bf61259b565b6040516103cc9190613c03565b60405180910390f35b3480156103e157600080fd5b506103fc60048036036103f7919081019061377d565b6125f2565b005b34801561040a57600080fd5b506104256004803603610420919081019061392d565b612869565b6040516104329190613c1e565b60405180910390f35b34801561044757600080fd5b50610462600480360361045d91908101906136d0565b612924565b60405161047496959493929190613c40565b60405180910390f35b34801561048957600080fd5b506104a4600480360361049f9190810190613711565b612fbe565b005b3480156104b257600080fd5b506104cd60048036036104c891908101906136a7565b61317b565b005b3480156104db57600080fd5b506104f660048036036104f1919081019061392d565b61319a565b60405161050593929190613ccb565b60405180910390f35b610516613495565b868160000181905250858160200181905250848160400181905250838160600181905250828160800181905250818160a0018190525060206040519081016040528060008152508160c0018190525060206040519081016040528060008152508160e0018190525060206040519081016040528060008152508161010001819052506003819080600181540180825580915050906001820390600052602060002090600902016000909192909190915060008201518160000190805190602001906105e29291906134e2565b5060208201518160010190805190602001906105ff9291906134e2565b50604082015181600201908051906020019061061c9291906134e2565b5060608201518160030190805190602001906106399291906134e2565b5060808201518160040190805190602001906106569291906134e2565b5060a08201518160050190805190602001906106739291906134e2565b5060c08201518160060190805190602001906106909291906134e2565b5060e08201518160070190805190602001906106ad9291906134e2565b506101008201518160080190805190602001906106cb9291906134e2565b50505050600a60009080600181540180825580915050906001820390600052602060002001600090919290919091505550816005886040518082805190602001908083835b6020831015156107355780518252602082019150602081019050602083039250610710565b6001836020036101000a0380198251168184511680821785525050505050509050019150509081526020016040518091039020908051906020019061077b929190613562565b506006826040518082805190602001908083835b6020831015156107b4578051825260208201915060208101905060208303925061078f565b6001836020036101000a0380198251168184511680821785525050505050509050019150509081526020016040518091039020879080600181540180825580915050906001820390600052602060002001600090919290919091509080519060200190610822929190613562565b50506001600380549050036007886040518082805190602001908083835b6020831015156108655780518252602082019150602081019050602083039250610840565b6001836020036101000a0380198251168184511680821785525050505050509050019150509081526020016040518091039020819055506008876040518082805190602001908083835b6020831015156108d457805182526020820191506020810190506020830392506108af565b6001836020036101000a0380198251168184511680821785525050505050509050019150509081526020016040518091039020829080600181540180825580915050906001820390600052602060002001600090919290919091509080519060200190610942929190613562565b50506009879080600181540180825580915050906001820390600052602060002001600090919290919091509080519060200190610981929190613562565b50506004856040518082805190602001908083835b6020831015156109bb5780518252602082019150602081019050602083039250610996565b6001836020036101000a03801982511681845116808217855250505050505090500191505090815260200160405180910390206000815480929190600101919050555050505050505050565b60606009805480602002602001604051908101604052809291908181526020016000905b82821015610ae7578382906000526020600020018054600181600116156101000203166002900480601f016020809104026020016040519081016040528092919081815260200182805460018160011615610100020316600290048015610ad35780601f10610aa857610100808354040283529160200191610ad3565b820191906000526020600020905b815481529060010190602001808311610ab657829003601f168201915b505050505081526020019060010190610a2b565b50505050905090565b60606008826040518082805190602001908083835b602083101515610b2a5780518252602082019150602081019050602083039250610b05565b6001836020036101000a0380198251168184511680821785525050505050509050019150509081526020016040518091039020805480602002602001604051908101604052809291908181526020016000905b82821015610c39578382906000526020600020018054600181600116156101000203166002900480601f016020809104026020016040519081016040528092919081815260200182805460018160011615610100020316600290048015610c255780601f10610bfa57610100808354040283529160200191610c25565b820191906000526020600020905b815481529060010190602001808311610c0857829003601f168201915b505050505081526020019060010190610b7d565b505050509050919050565b6060806060806060806060806000610c5a610a07565b94508451604051908082528060200260200182016040528015610c9157816020015b6060815260200190600190039081610c7c5790505b5093508451604051908082528060200260200182016040528015610cc957816020015b6060815260200190600190039081610cb45790505b5092508451604051908082528060200260200182016040528015610d0157816020015b6060815260200190600190039081610cec5790505b509150600090505b845181101561112157600360078683815181101515610d2457fe5b906020019060200201516040518082805190602001908083835b602083101515610d635780518252602082019150602081019050602083039250610d3e565b6001836020036101000a038019825116818451168082178552505050505050905001915050908152602001604051809103902054815481101515610da357fe5b90600052602060002090600902016001018054600181600116156101000203166002900480601f016020809104026020016040519081016040528092919081815260200182805460018160011615610100020316600290048015610e485780601f10610e1d57610100808354040283529160200191610e48565b820191906000526020600020905b815481529060010190602001808311610e2b57829003601f168201915b50505050508482815181101515610e5b57fe5b90602001906020020181905250600360078683815181101515610e7a57fe5b906020019060200201516040518082805190602001908083835b602083101515610eb95780518252602082019150602081019050602083039250610e94565b6001836020036101000a038019825116818451168082178552505050505050905001915050908152602001604051809103902054815481101515610ef957fe5b90600052602060002090600902016003018054600181600116156101000203166002900480601f016020809104026020016040519081016040528092919081815260200182805460018160011615610100020316600290048015610f9e5780601f10610f7357610100808354040283529160200191610f9e565b820191906000526020600020905b815481529060010190602001808311610f8157829003601f168201915b50505050508382815181101515610fb157fe5b90602001906020020181905250600360078683815181101515610fd057fe5b906020019060200201516040518082805190602001908083835b60208310151561100f5780518252602082019150602081019050602083039250610fea565b6001836020036101000a03801982511681845116808217855250505050505090500191505090815260200160405180910390205481548110151561104f57fe5b90600052602060002090600902016005018054600181600116156101000203166002900480601f0160208091040260200160405190810160405280929190818152602001828054600181600116156101000203166002900480156110f45780601f106110c9576101008083540402835291602001916110f4565b820191906000526020600020905b8154815290600101906020018083116110d757829003601f168201915b5050505050828281518110151561110757fe5b906020019060200201819052508080600101915050610d09565b848484849850985098509850505050505090919293565b600a8181548110151561114757fe5b906000526020600020016000915090505481565b60006004826040518082805190602001908083835b6020831015156111955780518252602082019150602081019050602083039250611170565b6001836020036101000a0380198251168184511680821785525050505050509050019150509081526020016040518091039020549050919050565b6003818154811015156111df57fe5b9060005260206000209060090201600091509050806000018054600181600116156101000203166002900480601f01602080910402602001604051908101604052809291908181526020018280546001816001161561010002031660029004801561128b5780601f106112605761010080835404028352916020019161128b565b820191906000526020600020905b81548152906001019060200180831161126e57829003601f168201915b505050505090806001018054600181600116156101000203166002900480601f0160208091040260200160405190810160405280929190818152602001828054600181600116156101000203166002900480156113295780601f106112fe57610100808354040283529160200191611329565b820191906000526020600020905b81548152906001019060200180831161130c57829003601f168201915b505050505090806002018054600181600116156101000203166002900480601f0160208091040260200160405190810160405280929190818152602001828054600181600116156101000203166002900480156113c75780601f1061139c576101008083540402835291602001916113c7565b820191906000526020600020905b8154815290600101906020018083116113aa57829003601f168201915b505050505090806003018054600181600116156101000203166002900480601f0160208091040260200160405190810160405280929190818152602001828054600181600116156101000203166002900480156114655780601f1061143a57610100808354040283529160200191611465565b820191906000526020600020905b81548152906001019060200180831161144857829003601f168201915b505050505090806004018054600181600116156101000203166002900480601f0160208091040260200160405190810160405280929190818152602001828054600181600116156101000203166002900480156115035780601f106114d857610100808354040283529160200191611503565b820191906000526020600020905b8154815290600101906020018083116114e657829003601f168201915b505050505090806005018054600181600116156101000203166002900480601f0160208091040260200160405190810160405280929190818152602001828054600181600116156101000203166002900480156115a15780601f10611576576101008083540402835291602001916115a1565b820191906000526020600020905b81548152906001019060200180831161158457829003601f168201915b505050505090806006018054600181600116156101000203166002900480601f01602080910402602001604051908101604052809291908181526020018280546001816001161561010002031660029004801561163f5780601f106116145761010080835404028352916020019161163f565b820191906000526020600020905b81548152906001019060200180831161162257829003601f168201915b505050505090806007018054600181600116156101000203166002900480601f0160208091040260200160405190810160405280929190818152602001828054600181600116156101000203166002900480156116dd5780601f106116b2576101008083540402835291602001916116dd565b820191906000526020600020905b8154815290600101906020018083116116c057829003601f168201915b505050505090806008018054600181600116156101000203166002900480601f01602080910402602001604051908101604052809291908181526020018280546001816001161561010002031660029004801561177b5780601f106117505761010080835404028352916020019161177b565b820191906000526020600020905b81548152906001019060200180831161175e57829003601f168201915b5050505050905089565b60006007826040518082805190602001908083835b6020831015156117bf578051825260208201915060208101905060208303925061179a565b6001836020036101000a0380198251168184511680821785525050505050509050019150509081526020016040518091039020549050919050565b61180261259b565b151561180d57600080fd5b600073ffffffffffffffffffffffffffffffffffffffff166000809054906101000a900473ffffffffffffffffffffffffffffffffffffffff1673ffffffffffffffffffffffffffffffffffffffff167f8be0079c531659141344cd1fd0a4f28419497f9722a3daafe3b4186f6b6457e060405160405180910390a360008060006101000a81548173ffffffffffffffffffffffffffffffffffffffff021916908373ffffffffffffffffffffffffffffffffffffffff160217905550565b6060806060806060806060806060806060806060600060068f6040518082805190602001908083835b60208310151561191a57805182526020820191506020810190506020830392506118f5565b6001836020036101000a0380198251168184511680821785525050505050509050019150509081526020016040518091039020805480602002602001604051908101604052809291908181526020016000905b82821015611a29578382906000526020600020018054600181600116156101000203166002900480601f016020809104026020016040519081016040528092919081815260200182805460018160011615610100020316600290048015611a155780601f106119ea57610100808354040283529160200191611a15565b820191906000526020600020905b8154815290600101906020018083116119f857829003601f168201915b50505050508152602001906001019061196d565b5050505097508751604051908082528060200260200182016040528015611a6457816020015b6060815260200190600190039081611a4f5790505b5096508751604051908082528060200260200182016040528015611a9c57816020015b6060815260200190600190039081611a875790505b5095508751604051908082528060200260200182016040528015611ad457816020015b6060815260200190600190039081611abf5790505b5094508751604051908082528060200260200182016040528015611b0c57816020015b6060815260200190600190039081611af75790505b5093508751604051908082528060200260200182016040528015611b4457816020015b6060815260200190600190039081611b2f5790505b5092508751604051908082528060200260200182016040528015611b7c57816020015b6060815260200190600190039081611b675790505b509150600090505b875181101561239e57600360078983815181101515611b9f57fe5b906020019060200201516040518082805190602001908083835b602083101515611bde5780518252602082019150602081019050602083039250611bb9565b6001836020036101000a038019825116818451168082178552505050505050905001915050908152602001604051809103902054815481101515611c1e57fe5b90600052602060002090600902016000018054600181600116156101000203166002900480601f016020809104026020016040519081016040528092919081815260200182805460018160011615610100020316600290048015611cc35780601f10611c9857610100808354040283529160200191611cc3565b820191906000526020600020905b815481529060010190602001808311611ca657829003601f168201915b50505050508782815181101515611cd657fe5b90602001906020020181905250600360078983815181101515611cf557fe5b906020019060200201516040518082805190602001908083835b602083101515611d345780518252602082019150602081019050602083039250611d0f565b6001836020036101000a038019825116818451168082178552505050505050905001915050908152602001604051809103902054815481101515611d7457fe5b90600052602060002090600902016001018054600181600116156101000203166002900480601f016020809104026020016040519081016040528092919081815260200182805460018160011615610100020316600290048015611e195780601f10611dee57610100808354040283529160200191611e19565b820191906000526020600020905b815481529060010190602001808311611dfc57829003601f168201915b50505050508682815181101515611e2c57fe5b90602001906020020181905250600360078983815181101515611e4b57fe5b906020019060200201516040518082805190602001908083835b602083101515611e8a5780518252602082019150602081019050602083039250611e65565b6001836020036101000a038019825116818451168082178552505050505050905001915050908152602001604051809103902054815481101515611eca57fe5b90600052602060002090600902016003018054600181600116156101000203166002900480601f016020809104026020016040519081016040528092919081815260200182805460018160011615610100020316600290048015611f6f5780601f10611f4457610100808354040283529160200191611f6f565b820191906000526020600020905b815481529060010190602001808311611f5257829003601f168201915b50505050508582815181101515611f8257fe5b90602001906020020181905250600360078983815181101515611fa157fe5b906020019060200201516040518082805190602001908083835b602083101515611fe05780518252602082019150602081019050602083039250611fbb565b6001836020036101000a03801982511681845116808217855250505050505090500191505090815260200160405180910390205481548110151561202057fe5b90600052602060002090600902016006018054600181600116156101000203166002900480601f0160208091040260200160405190810160405280929190818152602001828054600181600116156101000203166002900480156120c55780601f1061209a576101008083540402835291602001916120c5565b820191906000526020600020905b8154815290600101906020018083116120a857829003601f168201915b505050505084828151811015156120d857fe5b906020019060200201819052506003600789838151811015156120f757fe5b906020019060200201516040518082805190602001908083835b6020831015156121365780518252602082019150602081019050602083039250612111565b6001836020036101000a03801982511681845116808217855250505050505090500191505090815260200160405180910390205481548110151561217657fe5b90600052602060002090600902016007018054600181600116156101000203166002900480601f01602080910402602001604051908101604052809291908181526020018280546001816001161561010002031660029004801561221b5780601f106121f05761010080835404028352916020019161221b565b820191906000526020600020905b8154815290600101906020018083116121fe57829003601f168201915b5050505050838281518110151561222e57fe5b9060200190602002018190525060036007898381518110151561224d57fe5b906020019060200201516040518082805190602001908083835b60208310151561228c5780518252602082019150602081019050602083039250612267565b6001836020036101000a0380198251168184511680821785525050505050509050019150509081526020016040518091039020548154811015156122cc57fe5b90600052602060002090600902016008018054600181600116156101000203166002900480601f0160208091040260200160405190810160405280929190818152602001828054600181600116156101000203166002900480156123715780601f1061234657610100808354040283529160200191612371565b820191906000526020600020905b81548152906001019060200180831161235457829003601f168201915b5050505050828281518110151561238457fe5b906020019060200201819052508080600101915050611b84565b8686868686869d509d509d509d509d509d50505050505050505091939550919395565b6123c96135e2565b83816000018190525082816020018190525081816040018190525060018190806001815401808255809150509060018203906000526020600020906003020160009091929091909150600082015181600001908051906020019061242e9291906134e2565b50602082015181600101908051906020019061244b9291906134e2565b5060408201518160020190805190602001906124689291906134e2565b505050506002836040518082805190602001908083835b6020831015156124a4578051825260208201915060208101905060208303925061247f565b6001836020036101000a0380198251168184511680821785525050505050509050019150509081526020016040518091039020849080600181540180825580915050906001820390600052602060002001600090919290919091509080519060200190612512929190613562565b505050505050565b6060600a80548060200260200160405190810160405280929190818152602001828054801561256857602002820191906000526020600020905b815481526020019060010190808311612554575b5050505050905090565b60008060009054906101000a900473ffffffffffffffffffffffffffffffffffffffff16905090565b60008060009054906101000a900473ffffffffffffffffffffffffffffffffffffffff1673ffffffffffffffffffffffffffffffffffffffff163373ffffffffffffffffffffffffffffffffffffffff1614905090565b8160036007856040518082805190602001908083835b60208310151561262d5780518252602082019150602081019050602083039250612608565b6001836020036101000a03801982511681845116808217855250505050505090500191505090815260200160405180910390205481548110151561266d57fe5b90600052602060002090600902016007019080519060200190612691929190613562565b508060036007856040518082805190602001908083835b6020831015156126cd57805182526020820191506020810190506020830392506126a8565b6001836020036101000a03801982511681845116808217855250505050505090500191505090815260200160405180910390205481548110151561270d57fe5b90600052602060002090600902016008019080519060200190612731929190613562565b506002600a6007856040518082805190602001908083835b60208310151561276e5780518252602082019150602081019050602083039250612749565b6001836020036101000a0380198251168184511680821785525050505050509050019150509081526020016040518091039020548154811015156127ae57fe5b90600052602060002001819055506008836040518082805190602001908083835b6020831015156127f457805182526020820191506020810190506020830392506127cf565b6001836020036101000a0380198251168184511680821785525050505050509050019150509081526020016040518091039020829080600181540180825580915050906001820390600052602060002001600090919290919091509080519060200190612862929190613562565b5050505050565b60098181548110151561287857fe5b906000526020600020016000915090508054600181600116156101000203166002900480601f01602080910402602001604051908101604052809291908181526020018280546001816001161561010002031660029004801561291c5780601f106128f15761010080835404028352916020019161291c565b820191906000526020600020905b8154815290600101906020018083116128ff57829003601f168201915b505050505081565b606080606080606080612935613495565b60036007896040518082805190602001908083835b60208310151561296f578051825260208201915060208101905060208303925061294a565b6001836020036101000a0380198251168184511680821785525050505050509050019150509081526020016040518091039020548154811015156129af57fe5b90600052602060002090600902016101206040519081016040529081600082018054600181600116156101000203166002900480601f016020809104026020016040519081016040528092919081815260200182805460018160011615610100020316600290048015612a635780601f10612a3857610100808354040283529160200191612a63565b820191906000526020600020905b815481529060010190602001808311612a4657829003601f168201915b50505050508152602001600182018054600181600116156101000203166002900480601f016020809104026020016040519081016040528092919081815260200182805460018160011615610100020316600290048015612b055780601f10612ada57610100808354040283529160200191612b05565b820191906000526020600020905b815481529060010190602001808311612ae857829003601f168201915b50505050508152602001600282018054600181600116156101000203166002900480601f016020809104026020016040519081016040528092919081815260200182805460018160011615610100020316600290048015612ba75780601f10612b7c57610100808354040283529160200191612ba7565b820191906000526020600020905b815481529060010190602001808311612b8a57829003601f168201915b50505050508152602001600382018054600181600116156101000203166002900480601f016020809104026020016040519081016040528092919081815260200182805460018160011615610100020316600290048015612c495780601f10612c1e57610100808354040283529160200191612c49565b820191906000526020600020905b815481529060010190602001808311612c2c57829003601f168201915b50505050508152602001600482018054600181600116156101000203166002900480601f016020809104026020016040519081016040528092919081815260200182805460018160011615610100020316600290048015612ceb5780601f10612cc057610100808354040283529160200191612ceb565b820191906000526020600020905b815481529060010190602001808311612cce57829003601f168201915b50505050508152602001600582018054600181600116156101000203166002900480601f016020809104026020016040519081016040528092919081815260200182805460018160011615610100020316600290048015612d8d5780601f10612d6257610100808354040283529160200191612d8d565b820191906000526020600020905b815481529060010190602001808311612d7057829003601f168201915b50505050508152602001600682018054600181600116156101000203166002900480601f016020809104026020016040519081016040528092919081815260200182805460018160011615610100020316600290048015612e2f5780601f10612e0457610100808354040283529160200191612e2f565b820191906000526020600020905b815481529060010190602001808311612e1257829003601f168201915b50505050508152602001600782018054600181600116156101000203166002900480601f016020809104026020016040519081016040528092919081815260200182805460018160011615610100020316600290048015612ed15780601f10612ea657610100808354040283529160200191612ed1565b820191906000526020600020905b815481529060010190602001808311612eb457829003601f168201915b50505050508152602001600882018054600181600116156101000203166002900480601f016020809104026020016040519081016040528092919081815260200182805460018160011615610100020316600290048015612f735780601f10612f4857610100808354040283529160200191612f73565b820191906000526020600020905b815481529060010190602001808311612f5657829003601f168201915b50505050508152505090508781606001518260a001518360c001518460e001518561010001518494508393508292508191508090509650965096509650965096505091939550919395565b8060036007846040518082805190602001908083835b602083101515612ff95780518252602082019150602081019050602083039250612fd4565b6001836020036101000a03801982511681845116808217855250505050505090500191505090815260200160405180910390205481548110151561303957fe5b9060005260206000209060090201600601908051906020019061305d929190613562565b506001600a6007846040518082805190602001908083835b60208310151561309a5780518252602082019150602081019050602083039250613075565b6001836020036101000a0380198251168184511680821785525050505050509050019150509081526020016040518091039020548154811015156130da57fe5b9060005260206000200154111515613177576001600a6007846040518082805190602001908083835b6020831015156131285780518252602082019150602081019050602083039250613103565b6001836020036101000a03801982511681845116808217855250505050505090500191505090815260200160405180910390205481548110151561316857fe5b90600052602060002001819055505b5050565b61318361259b565b151561318e57600080fd5b6131978161339b565b50565b6001818154811015156131a957fe5b9060005260206000209060030201600091509050806000018054600181600116156101000203166002900480601f0160208091040260200160405190810160405280929190818152602001828054600181600116156101000203166002900480156132555780601f1061322a57610100808354040283529160200191613255565b820191906000526020600020905b81548152906001019060200180831161323857829003601f168201915b505050505090806001018054600181600116156101000203166002900480601f0160208091040260200160405190810160405280929190818152602001828054600181600116156101000203166002900480156132f35780601f106132c8576101008083540402835291602001916132f3565b820191906000526020600020905b8154815290600101906020018083116132d657829003601f168201915b505050505090806002018054600181600116156101000203166002900480601f0160208091040260200160405190810160405280929190818152602001828054600181600116156101000203166002900480156133915780601f1061336657610100808354040283529160200191613391565b820191906000526020600020905b81548152906001019060200180831161337457829003601f168201915b5050505050905083565b600073ffffffffffffffffffffffffffffffffffffffff168173ffffffffffffffffffffffffffffffffffffffff16141515156133d757600080fd5b8073ffffffffffffffffffffffffffffffffffffffff166000809054906101000a900473ffffffffffffffffffffffffffffffffffffffff1673ffffffffffffffffffffffffffffffffffffffff167f8be0079c531659141344cd1fd0a4f28419497f9722a3daafe3b4186f6b6457e060405160405180910390a3806000806101000a81548173ffffffffffffffffffffffffffffffffffffffff021916908373ffffffffffffffffffffffffffffffffffffffff16021790555050565b610120604051908101604052806060815260200160608152602001606081526020016060815260200160608152602001606081526020016060815260200160608152602001606081525090565b828054600181600116156101000203166002900490600052602060002090601f016020900481019282601f1061352357805160ff1916838001178555613551565b82800160010185558215613551579182015b82811115613550578251825591602001919060010190613535565b5b50905061355e9190613604565b5090565b828054600181600116156101000203166002900490600052602060002090601f016020900481019282601f106135a357805160ff19168380011785556135d1565b828001600101855582156135d1579182015b828111156135d05782518255916020019190600101906135b5565b5b5090506135de9190613604565b5090565b6060604051908101604052806060815260200160608152602001606081525090565b61362691905b8082111561362257600081600090555060010161360a565b5090565b90565b60006136358235613eed565b905092915050565b600082601f830112151561365057600080fd5b813561366361365e82613e2b565b613dfe565b9150808252602083016020830185838301111561367f57600080fd5b61368a838284613f17565b50505092915050565b600061369f8235613f0d565b905092915050565b6000602082840312156136b957600080fd5b60006136c784828501613629565b91505092915050565b6000602082840312156136e257600080fd5b600082013567ffffffffffffffff8111156136fc57600080fd5b6137088482850161363d565b91505092915050565b6000806040838503121561372457600080fd5b600083013567ffffffffffffffff81111561373e57600080fd5b61374a8582860161363d565b925050602083013567ffffffffffffffff81111561376757600080fd5b6137738582860161363d565b9150509250929050565b60008060006060848603121561379257600080fd5b600084013567ffffffffffffffff8111156137ac57600080fd5b6137b88682870161363d565b935050602084013567ffffffffffffffff8111156137d557600080fd5b6137e18682870161363d565b925050604084013567ffffffffffffffff8111156137fe57600080fd5b61380a8682870161363d565b9150509250925092565b60008060008060008060c0878903121561382d57600080fd5b600087013567ffffffffffffffff81111561384757600080fd5b61385389828a0161363d565b965050602087013567ffffffffffffffff81111561387057600080fd5b61387c89828a0161363d565b955050604087013567ffffffffffffffff81111561389957600080fd5b6138a589828a0161363d565b945050606087013567ffffffffffffffff8111156138c257600080fd5b6138ce89828a0161363d565b935050608087013567ffffffffffffffff8111156138eb57600080fd5b6138f789828a0161363d565b92505060a087013567ffffffffffffffff81111561391457600080fd5b61392089828a0161363d565b9150509295509295509295565b60006020828403121561393f57600080fd5b600061394d84828501613693565b91505092915050565b61395f81613eb7565b82525050565b600061397082613e71565b8084526020840193508360208202850161398985613e57565b60005b848110156139c25783830388526139a4838351613a73565b92506139af82613e9d565b915060208801975060018101905061398c565b508196508694505050505092915050565b60006139de82613e7c565b8084526020840193506139f083613e64565b60005b82811015613a2257613a06868351613aa9565b613a0f82613eaa565b91506020860195506001810190506139f3565b50849250505092915050565b613a3781613ed7565b82525050565b6000613a4882613e92565b808452613a5c816020860160208601613f26565b613a6581613f59565b602085010191505092915050565b6000613a7e82613e87565b808452613a92816020860160208601613f26565b613a9b81613f59565b602085010191505092915050565b613ab281613ee3565b82525050565b6000602082019050613acd6000830184613956565b92915050565b60006020820190508181036000830152613aed8184613965565b905092915050565b60006080820190508181036000830152613b0f8187613965565b90508181036020830152613b238186613965565b90508181036040830152613b378185613965565b90508181036060830152613b4b8184613965565b905095945050505050565b600060c0820190508181036000830152613b708189613965565b90508181036020830152613b848188613965565b90508181036040830152613b988187613965565b90508181036060830152613bac8186613965565b90508181036080830152613bc08185613965565b905081810360a0830152613bd48184613965565b9050979650505050505050565b60006020820190508181036000830152613bfb81846139d3565b905092915050565b6000602082019050613c186000830184613a2e565b92915050565b60006020820190508181036000830152613c388184613a73565b905092915050565b600060c0820190508181036000830152613c5a8189613a3d565b90508181036020830152613c6e8188613a3d565b90508181036040830152613c828187613a3d565b90508181036060830152613c968186613a3d565b90508181036080830152613caa8185613a3d565b905081810360a0830152613cbe8184613a3d565b9050979650505050505050565b60006060820190508181036000830152613ce58186613a73565b90508181036020830152613cf98185613a73565b90508181036040830152613d0d8184613a73565b9050949350505050565b6000610120820190508181036000830152613d32818c613a73565b90508181036020830152613d46818b613a73565b90508181036040830152613d5a818a613a73565b90508181036060830152613d6e8189613a73565b90508181036080830152613d828188613a73565b905081810360a0830152613d968187613a73565b905081810360c0830152613daa8186613a73565b905081810360e0830152613dbe8185613a73565b9050818103610100830152613dd38184613a73565b90509a9950505050505050505050565b6000602082019050613df86000830184613aa9565b92915050565b6000604051905081810181811067ffffffffffffffff82111715613e2157600080fd5b8060405250919050565b600067ffffffffffffffff821115613e4257600080fd5b601f19601f8301169050602081019050919050565b6000602082019050919050565b6000602082019050919050565b600081519050919050565b600081519050919050565b600081519050919050565b600081519050919050565b6000602082019050919050565b6000602082019050919050565b600073ffffffffffffffffffffffffffffffffffffffff82169050919050565b60008115159050919050565b6000819050919050565b600073ffffffffffffffffffffffffffffffffffffffff82169050919050565b6000819050919050565b82818337600083830152505050565b60005b83811015613f44578082015181840152602081019050613f29565b83811115613f53576000848401525b50505050565b6000601f19601f83011690509190505600a265627a7a723058203718fef74415fa45f24a3efe791f06b3c0309911bc8b547028b0af5a74aced8f6c6578706572696d656e74616cf50037",
  "source": "pragma solidity ^0.4.24;\npragma experimental ABIEncoderV2;\nimport \"./ownable.sol\";\n\ncontract HappyAlliance is Ownable {\n\n\tstruct Donation {\n  \t// Do not record details in the blockchain\n  \tstring donationId; // donation Id\n  \tstring memberId; // member Id\n\t\tstring openInfo; // information that a member agrees to open\n  }\n\n  Donation[] public donations; // donation array\n  mapping (string => string[]) memberToDonations;\n\n  struct Box {\n    string boxId; // box Id\n    string boxType; // box type such as KIDS\n    string generatedYear; // year that a box is generated\n    string serializedDonationsDetails; // originally string[] donationIds;\n    string expirationDate; // expiration date obtained from the minimum value out of donations\n    string npoInfo; // npo information\n    string npoReceivedTime; // check whether the npo receives\n    string recipientInfo; // information about last recipients\n    string recipientReceivedTime; // check whether the recipient receives\n  }\n\n  Box[] public boxes; // box array\n\n  mapping (string => uint) yearlyCounts;\n  mapping (string => string) boxToNPO;\n  mapping (string => string[]) npoToBoxIds;\n  mapping (string => uint) boxIdToIdx;\n  mapping (string => string[]) historyOfBox; // record whole destination history\n\n  string[] public boxIdList; // list of box ids\n\n  uint[] public boxStatus;\n\n  constructor () public {\n    // initialize the first box of which id is \"test\"\n    //sendBox(\"0\", 'serializedDonationsDetails', \"prisming\");\n    //addResult(\"0\", 'given to a 10-year old boy');\n    //sendBox(\"1\", 'serializedDonationsDetails', \"snpo\");\n    sendBox(\"initialize\", \"undefined\", \"undefined\", '[{\"undefined\": \"\"}]', \"null\", \"undefined\");\n    boxStatus[0] = 99;\n    donate(\"initialize\", \"noname\", \"noInfo\");\n  }\n\n  function donate (string _donationId, string _memberId, string _openInfo) public {\n  \tDonation memory tmpDonation;\n  \ttmpDonation.donationId = _donationId;\n  \ttmpDonation.memberId = _memberId;\n\t\ttmpDonation.openInfo = _openInfo;\n    donations.push(tmpDonation);\n  \tmemberToDonations[_memberId].push(_donationId);\n  }\n\n  function sendBox (string _boxId, string _boxType, string _year, string _serializedDonationsDetails, string _expirationDate, string _npo) public {\n    Box memory tmpBox;\n    tmpBox.boxId = _boxId;\n    tmpBox.boxType = _boxType;\n    tmpBox.generatedYear = _year;\n    tmpBox.serializedDonationsDetails = _serializedDonationsDetails;\n    tmpBox.expirationDate = _expirationDate;\n    tmpBox.npoInfo = _npo;\n    tmpBox.npoReceivedTime = '';\n    tmpBox.recipientInfo = '';\n    tmpBox.recipientReceivedTime = '';\n\n    boxes.push(tmpBox);\n    boxStatus.push(0);\n\n    boxToNPO[_boxId] = _npo;\n    npoToBoxIds[_npo].push(_boxId);\n    boxIdToIdx[_boxId] = boxes.length - 1;\n    historyOfBox[_boxId].push(_npo);\n    boxIdList.push(_boxId);\n    yearlyCounts[_year]++;\n  }\n\n  // return all box ids;\n  function getBoxIds () public view returns(string[]){\n    return boxIdList;\n  }\n\n  // return the received history of a box\n  function getHistoryOfBox (string _boxId) public view returns(string[]){\n    return historyOfBox[_boxId];\n  }\n\n  // confirm that a npo receives a box\n  function npoConfirm (string _boxId, string _time) public {\n    boxes[boxIdToIdx[_boxId]].npoReceivedTime = _time;\n    if(boxStatus[boxIdToIdx[_boxId]]<=1){\n      boxStatus[boxIdToIdx[_boxId]] = 1;\n    }\n  }\n\n  // After a recipient receives the box and notifies this update to SK\n  function addRecipientInfo (string _boxId, string _recipientInfo, string _time) public {\n    boxes[boxIdToIdx[_boxId]].recipientInfo = _recipientInfo;\n    boxes[boxIdToIdx[_boxId]].recipientReceivedTime = _time;\n    boxStatus[boxIdToIdx[_boxId]] = 2;\n    historyOfBox[_boxId].push(_recipientInfo);\n  }\n\n  function getStatusForAll () public view returns (uint[]) {\n    return boxStatus;\n  }\n\n  // check box information\n  function viewBoxInformation (string _boxId) public view returns(string, string, string, string, string, string){\n    //require(boxes[boxIdToIdx[_boxId]].received == true, \"NPO does not receive the box yet.\");\n    Box memory targetBox = boxes[boxIdToIdx[_boxId]];\n    return (_boxId, targetBox.serializedDonationsDetails, targetBox.npoInfo, targetBox.npoReceivedTime, targetBox.recipientInfo, targetBox.recipientReceivedTime);\n  }\n\n  // mapping box id to index in 'boxes' array\n  function getIndexByBoxId (string _boxId) public view returns (uint) {\n    return boxIdToIdx[_boxId];\n  }\n\n  // get number of boxes by year\n  function getNumBoxesByYear (string _year) public view returns (uint) {\n    return yearlyCounts[_year];\n  }\n\n  function getBoxInfoByNPO (string _npo) public view returns (string[], string[], string[], string[], string[], string[]) {\n    string[] memory tmp = npoToBoxIds[_npo];\n\n    string[] memory list1 = new string[](tmp.length);\n    string[] memory list2 = new string[](tmp.length);\n    string[] memory list3 = new string[](tmp.length);\n    string[] memory list4 = new string[](tmp.length);\n    string[] memory list5 = new string[](tmp.length);\n    string[] memory list6 = new string[](tmp.length);\n\n    for(uint i=0; i<tmp.length; i++){\n      list1[i] = boxes[boxIdToIdx[tmp[i]]].boxId;\n      list2[i] = boxes[boxIdToIdx[tmp[i]]].boxType;\n      list3[i] = boxes[boxIdToIdx[tmp[i]]].serializedDonationsDetails;\n      list4[i] = boxes[boxIdToIdx[tmp[i]]].npoReceivedTime;\n      list5[i] = boxes[boxIdToIdx[tmp[i]]].recipientInfo;\n      list6[i] = boxes[boxIdToIdx[tmp[i]]].recipientReceivedTime;\n    }\n    return (list1, list2, list3, list4, list5, list6);\n  }\n\n\tfunction getAllBoxInfo () public view returns (string[], string[], string[], string[]){\n\t\tstring[] memory boxIds = getBoxIds();\n\t\tstring[] memory types = new string[](boxIds.length);\n\t\tstring[] memory donations = new string[](boxIds.length);\n\t\tstring[] memory npos = new string[](boxIds.length);\n\t\tfor(uint i=0; i<boxIds.length; i++){\n\t\t\ttypes[i] = boxes[boxIdToIdx[boxIds[i]]].boxType;\n\t\t\tdonations[i] = boxes[boxIdToIdx[boxIds[i]]].serializedDonationsDetails;\n\t\t\tnpos[i] = boxes[boxIdToIdx[boxIds[i]]].npoInfo;\n\t\t}\n\t\treturn (boxIds, types, donations, npos);\n\t}\n\n}\n",
  "sourcePath": "/Users/hyunuk/prismingSol/contracts/HappyAlliance.sol",
  "compiler": {
    "name": "solc",
    "version": "0.4.25+commit.59dbf8f1.Emscripten.clang"
  },
  "schemaVersion": "2.0.2",
  "updatedAt": "2019-04-17T18:31:06.472Z"
}