{
  "contractName": "HappyAlliance",
  "abi": [
    {
      "constant": true,
      "inputs": [
        {
          "name": "",
          "type": "uint256"
        }
      ],
      "name": "boxTypes",
      "outputs": [
        {
          "name": "",
          "type": "string"
        }
      ],
      "payable": false,
      "stateMutability": "view",
      "type": "function"
    },
    {
      "constant": true,
      "inputs": [
        {
          "name": "",
          "type": "uint256"
        }
      ],
      "name": "boxStatus",
      "outputs": [
        {
          "name": "",
          "type": "uint256"
        }
      ],
      "payable": false,
      "stateMutability": "view",
      "type": "function"
    },
    {
      "constant": true,
      "inputs": [
        {
          "name": "",
          "type": "uint256"
        }
      ],
      "name": "boxes",
      "outputs": [
        {
          "name": "boxId",
          "type": "string"
        },
        {
          "name": "boxType",
          "type": "string"
        },
        {
          "name": "generatedYear",
          "type": "string"
        },
        {
          "name": "serializedDonationsDetails",
          "type": "string"
        },
        {
          "name": "expirationDate",
          "type": "string"
        },
        {
          "name": "npoInfo",
          "type": "string"
        },
        {
          "name": "npoReceivedTime",
          "type": "string"
        },
        {
          "name": "recipientInfo",
          "type": "string"
        },
        {
          "name": "recipientReceivedTime",
          "type": "string"
        }
      ],
      "payable": false,
      "stateMutability": "view",
      "type": "function"
    },
    {
      "constant": false,
      "inputs": [],
      "name": "renounceOwnership",
      "outputs": [],
      "payable": false,
      "stateMutability": "nonpayable",
      "type": "function"
    },
    {
      "constant": true,
      "inputs": [],
      "name": "owner",
      "outputs": [
        {
          "name": "",
          "type": "address"
        }
      ],
      "payable": false,
      "stateMutability": "view",
      "type": "function"
    },
    {
      "constant": true,
      "inputs": [],
      "name": "isOwner",
      "outputs": [
        {
          "name": "",
          "type": "bool"
        }
      ],
      "payable": false,
      "stateMutability": "view",
      "type": "function"
    },
    {
      "constant": true,
      "inputs": [
        {
          "name": "",
          "type": "uint256"
        }
      ],
      "name": "boxIdList",
      "outputs": [
        {
          "name": "",
          "type": "string"
        }
      ],
      "payable": false,
      "stateMutability": "view",
      "type": "function"
    },
    {
      "constant": false,
      "inputs": [
        {
          "name": "newOwner",
          "type": "address"
        }
      ],
      "name": "transferOwnership",
      "outputs": [],
      "payable": false,
      "stateMutability": "nonpayable",
      "type": "function"
    },
    {
      "constant": true,
      "inputs": [
        {
          "name": "",
          "type": "uint256"
        }
      ],
      "name": "donations",
      "outputs": [
        {
          "name": "donationId",
          "type": "string"
        },
        {
          "name": "memberId",
          "type": "string"
        },
        {
          "name": "openInfo",
          "type": "string"
        }
      ],
      "payable": false,
      "stateMutability": "view",
      "type": "function"
    },
    {
      "inputs": [],
      "payable": false,
      "stateMutability": "nonpayable",
      "type": "constructor"
    },
    {
      "anonymous": false,
      "inputs": [
        {
          "indexed": true,
          "name": "previousOwner",
          "type": "address"
        },
        {
          "indexed": true,
          "name": "newOwner",
          "type": "address"
        }
      ],
      "name": "OwnershipTransferred",
      "type": "event"
    },
    {
      "constant": false,
      "inputs": [
        {
          "name": "_donationId",
          "type": "string"
        },
        {
          "name": "_memberId",
          "type": "string"
        },
        {
          "name": "_openInfo",
          "type": "string"
        }
      ],
      "name": "donate",
      "outputs": [],
      "payable": false,
      "stateMutability": "nonpayable",
      "type": "function"
    },
    {
      "constant": false,
      "inputs": [
        {
          "name": "_boxId",
          "type": "string"
        },
        {
          "name": "_boxType",
          "type": "string"
        },
        {
          "name": "_year",
          "type": "string"
        },
        {
          "name": "_serializedDonationsDetails",
          "type": "string"
        },
        {
          "name": "_expirationDate",
          "type": "string"
        },
        {
          "name": "_npo",
          "type": "string"
        }
      ],
      "name": "distributeBox",
      "outputs": [],
      "payable": false,
      "stateMutability": "nonpayable",
      "type": "function"
    },
    {
      "constant": false,
      "inputs": [
        {
          "name": "_boxId",
          "type": "string"
        },
        {
          "name": "_time",
          "type": "string"
        }
      ],
      "name": "receiveBox",
      "outputs": [],
      "payable": false,
      "stateMutability": "nonpayable",
      "type": "function"
    },
    {
      "constant": false,
      "inputs": [
        {
          "name": "_boxId",
          "type": "string"
        },
        {
          "name": "_recipientInfo",
          "type": "string"
        },
        {
          "name": "_time",
          "type": "string"
        }
      ],
      "name": "addInfo",
      "outputs": [],
      "payable": false,
      "stateMutability": "nonpayable",
      "type": "function"
    },
    {
      "constant": true,
      "inputs": [],
      "name": "getBoxIds",
      "outputs": [
        {
          "name": "",
          "type": "string[]"
        }
      ],
      "payable": false,
      "stateMutability": "view",
      "type": "function"
    },
    {
      "constant": true,
      "inputs": [],
      "name": "getBoxTypes",
      "outputs": [
        {
          "name": "",
          "type": "string[]"
        }
      ],
      "payable": false,
      "stateMutability": "view",
      "type": "function"
    },
    {
      "constant": true,
      "inputs": [
        {
          "name": "_boxId",
          "type": "string"
        }
      ],
      "name": "getHistoryOfBox",
      "outputs": [
        {
          "name": "",
          "type": "string[]"
        }
      ],
      "payable": false,
      "stateMutability": "view",
      "type": "function"
    },
    {
      "constant": true,
      "inputs": [],
      "name": "getStatusForAll",
      "outputs": [
        {
          "name": "",
          "type": "uint256[]"
        }
      ],
      "payable": false,
      "stateMutability": "view",
      "type": "function"
    },
    {
      "constant": true,
      "inputs": [
        {
          "name": "_boxId",
          "type": "string"
        }
      ],
      "name": "viewBoxInformation",
      "outputs": [
        {
          "name": "",
          "type": "string"
        },
        {
          "name": "",
          "type": "string"
        },
        {
          "name": "",
          "type": "string"
        },
        {
          "name": "",
          "type": "string"
        },
        {
          "name": "",
          "type": "string"
        },
        {
          "name": "",
          "type": "string"
        }
      ],
      "payable": false,
      "stateMutability": "view",
      "type": "function"
    },
    {
      "constant": true,
      "inputs": [
        {
          "name": "_boxId",
          "type": "string"
        }
      ],
      "name": "getIndexByBoxId",
      "outputs": [
        {
          "name": "",
          "type": "uint256"
        }
      ],
      "payable": false,
      "stateMutability": "view",
      "type": "function"
    },
    {
      "constant": true,
      "inputs": [
        {
          "name": "_year",
          "type": "string"
        }
      ],
      "name": "getNumBoxesByYear",
      "outputs": [
        {
          "name": "",
          "type": "uint256"
        }
      ],
      "payable": false,
      "stateMutability": "view",
      "type": "function"
    },
    {
      "constant": true,
      "inputs": [
        {
          "name": "_npo",
          "type": "string"
        }
      ],
      "name": "getBoxInfoByNPO",
      "outputs": [
        {
          "name": "",
          "type": "string[]"
        },
        {
          "name": "",
          "type": "string[]"
        },
        {
          "name": "",
          "type": "string[]"
        },
        {
          "name": "",
          "type": "string[]"
        },
        {
          "name": "",
          "type": "string[]"
        },
        {
          "name": "",
          "type": "string[]"
        }
      ],
      "payable": false,
      "stateMutability": "view",
      "type": "function"
    },
    {
      "constant": true,
      "inputs": [],
      "name": "getAllBoxInfo",
      "outputs": [
        {
          "name": "",
          "type": "string[]"
        },
        {
          "name": "",
          "type": "string[]"
        },
        {
          "name": "",
          "type": "string[]"
        },
        {
          "name": "",
          "type": "string[]"
        }
      ],
      "payable": false,
      "stateMutability": "view",
      "type": "function"
    }
  ],
  "bytecode": "0x60806040523480156200001157600080fd5b50336000806101000a81548173ffffffffffffffffffffffffffffffffffffffff021916908373ffffffffffffffffffffffffffffffffffffffff1602179055506000809054906101000a900473ffffffffffffffffffffffffffffffffffffffff1673ffffffffffffffffffffffffffffffffffffffff16600073ffffffffffffffffffffffffffffffffffffffff167f8be0079c531659141344cd1fd0a4f28419497f9722a3daafe3b4186f6b6457e060405160405180910390a36200022b6040805190810160405280600a81526020017f696e697469616c697a65000000000000000000000000000000000000000000008152506040805190810160405280600981526020017f756e646566696e656400000000000000000000000000000000000000000000008152506040805190810160405280600981526020017f756e646566696e656400000000000000000000000000000000000000000000008152506040805190810160405280601381526020017f5b7b22756e646566696e6564223a2022227d5d000000000000000000000000008152506040805190810160405280600481526020017f6e756c6c000000000000000000000000000000000000000000000000000000008152506040805190810160405280600981526020017f756e646566696e656400000000000000000000000000000000000000000000008152506200030d640100000000026401000000009004565b6063600b60008154811015156200023e57fe5b9060005260206000200181905550620003076040805190810160405280600a81526020017f696e697469616c697a65000000000000000000000000000000000000000000008152506040805190810160405280600681526020017f6e6f6e616d6500000000000000000000000000000000000000000000000000008152506040805190810160405280600681526020017f6e6f496e666f00000000000000000000000000000000000000000000000000008152506200086d640100000000026401000000009004565b62000b77565b62000317620009d2565b868160000181905250858160200181905250848160400181905250838160600181905250828160800181905250818160a0018190525060206040519081016040528060008152508160c0018190525060206040519081016040528060008152508160e001819052506020604051908101604052806000815250816101000181905250600381908060018154018082558091505090600182039060005260206000209060090201600090919290919091506000820151816000019080519060200190620003e592919062000a1f565b5060208201518160010190805190602001906200040492919062000a1f565b5060408201518160020190805190602001906200042392919062000a1f565b5060608201518160030190805190602001906200044292919062000a1f565b5060808201518160040190805190602001906200046192919062000a1f565b5060a08201518160050190805190602001906200048092919062000a1f565b5060c08201518160060190805190602001906200049f92919062000a1f565b5060e0820151816007019080519060200190620004be92919062000a1f565b50610100820151816008019080519060200190620004de92919062000a1f565b50505050600b60009080600181540180825580915050906001820390600052602060002001600090919290919091505550816005886040518082805190602001908083835b6020831015156200054a578051825260208201915060208101905060208303925062000523565b6001836020036101000a038019825116818451168082178552505050505050905001915050908152602001604051809103902090805190602001906200059292919062000aa6565b506006826040518082805190602001908083835b602083101515620005cd5780518252602082019150602081019050602083039250620005a6565b6001836020036101000a03801982511681845116808217855250505050505090500191505090815260200160405180910390208790806001815401808255809150509060018203906000526020600020016000909192909190915090805190602001906200063d92919062000aa6565b50506001600380549050036007886040518082805190602001908083835b6020831015156200068257805182526020820191506020810190506020830392506200065b565b6001836020036101000a0380198251168184511680821785525050505050509050019150509081526020016040518091039020819055506008876040518082805190602001908083835b602083101515620006f35780518252602082019150602081019050602083039250620006cc565b6001836020036101000a03801982511681845116808217855250505050505090500191505090815260200160405180910390208290806001815401808255809150509060018203906000526020600020016000909192909190915090805190602001906200076392919062000aa6565b50506009879080600181540180825580915050906001820390600052602060002001600090919290919091509080519060200190620007a492919062000aa6565b5050600a869080600181540180825580915050906001820390600052602060002001600090919290919091509080519060200190620007e592919062000aa6565b50506004856040518082805190602001908083835b602083101515620008215780518252602082019150602081019050602083039250620007fa565b6001836020036101000a03801982511681845116808217855250505050505090500191505090815260200160405180910390206000815480929190600101919050555050505050505050565b6200087762000b2d565b838160000181905250828160200181905250818160400181905250600181908060018154018082558091505090600182039060005260206000209060030201600090919290919091506000820151816000019080519060200190620008de92919062000a1f565b506020820151816001019080519060200190620008fd92919062000a1f565b5060408201518160020190805190602001906200091c92919062000a1f565b505050506002836040518082805190602001908083835b6020831015156200095a578051825260208201915060208101905060208303925062000933565b6001836020036101000a0380198251168184511680821785525050505050509050019150509081526020016040518091039020849080600181540180825580915050906001820390600052602060002001600090919290919091509080519060200190620009ca92919062000aa6565b505050505050565b610120604051908101604052806060815260200160608152602001606081526020016060815260200160608152602001606081526020016060815260200160608152602001606081525090565b828054600181600116156101000203166002900490600052602060002090601f016020900481019282601f1062000a6257805160ff191683800117855562000a93565b8280016001018555821562000a93579182015b8281111562000a9257825182559160200191906001019062000a75565b5b50905062000aa2919062000b4f565b5090565b828054600181600116156101000203166002900490600052602060002090601f016020900481019282601f1062000ae957805160ff191683800117855562000b1a565b8280016001018555821562000b1a579182015b8281111562000b1957825182559160200191906001019062000afc565b5b50905062000b29919062000b4f565b5090565b6060604051908101604052806060815260200160608152602001606081525090565b62000b7491905b8082111562000b7057600081600090555060010162000b56565b5090565b90565b6142058062000b876000396000f300608060405260043610610128576000357c0100000000000000000000000000000000000000000000000000000000900463ffffffff1680633a931a1d1461012d5780633d1819ad1461016a57806342a4539c146101955780634aa57307146101d25780634ad62ae6146102005780634c9e2eab1461023d5780634ed3faf21461027a578063675c9157146102bf578063715018a6146102fc57806374c466a114610313578063775c96e91461033c57806378009e291461037e5780638bf20649146103a95780638d6db855146103d25780638da5cb5b146103fd5780638f32d59b14610428578063b31976b014610453578063b4712f6114610490578063d7bbffb3146104d2578063f0a9328f146104fb578063f2fde38b14610524578063f8626af81461054d575b600080fd5b34801561013957600080fd5b50610154600480360361014f9190810190613b8e565b61058c565b6040516101619190613e7f565b60405180910390f35b34801561017657600080fd5b5061017f610647565b60405161018c9190613d34565b60405180910390f35b3480156101a157600080fd5b506101bc60048036036101b79190810190613931565b610730565b6040516101c99190613d34565b60405180910390f35b3480156101de57600080fd5b506101e7610884565b6040516101f79493929190613d56565b60405180910390f35b34801561020c57600080fd5b5061022760048036036102229190810190613b8e565b610d78565b6040516102349190614044565b60405180910390f35b34801561024957600080fd5b50610264600480360361025f9190810190613931565b610d9b565b6040516102719190614044565b60405180910390f35b34801561028657600080fd5b506102a1600480360361029c9190810190613b8e565b610e10565b6040516102b699989796959493929190613f78565b60405180910390f35b3480156102cb57600080fd5b506102e660048036036102e19190810190613931565b6113c5565b6040516102f39190614044565b60405180910390f35b34801561030857600080fd5b5061031161143a565b005b34801561031f57600080fd5b5061033a60048036036103359190810190613972565b61150c565b005b34801561034857600080fd5b50610363600480360361035e9190810190613931565b6116c9565b60405161037596959493929190613db7565b60405180910390f35b34801561038a57600080fd5b506103936121be565b6040516103a09190613d34565b60405180910390f35b3480156103b557600080fd5b506103d060048036036103cb91908101906139de565b6122a7565b005b3480156103de57600080fd5b506103e7612400565b6040516103f49190613e42565b60405180910390f35b34801561040957600080fd5b50610412612458565b60405161041f9190613d19565b60405180910390f35b34801561043457600080fd5b5061043d612481565b60405161044a9190613e64565b60405180910390f35b34801561045f57600080fd5b5061047a60048036036104759190810190613b8e565b6124d8565b6040516104879190613e7f565b60405180910390f35b34801561049c57600080fd5b506104b760048036036104b29190810190613931565b612593565b6040516104c996959493929190613ea1565b60405180910390f35b3480156104de57600080fd5b506104f960048036036104f491908101906139de565b612c2d565b005b34801561050757600080fd5b50610522600480360361051d9190810190613a75565b612ea4565b005b34801561053057600080fd5b5061054b60048036036105469190810190613908565b6133dc565b005b34801561055957600080fd5b50610574600480360361056f9190810190613b8e565b6133fb565b60405161058393929190613f2c565b60405180910390f35b600a8181548110151561059b57fe5b906000526020600020016000915090508054600181600116156101000203166002900480601f01602080910402602001604051908101604052809291908181526020018280546001816001161561010002031660029004801561063f5780601f106106145761010080835404028352916020019161063f565b820191906000526020600020905b81548152906001019060200180831161062257829003601f168201915b505050505081565b60606009805480602002602001604051908101604052809291908181526020016000905b82821015610727578382906000526020600020018054600181600116156101000203166002900480601f0160208091040260200160405190810160405280929190818152602001828054600181600116156101000203166002900480156107135780601f106106e857610100808354040283529160200191610713565b820191906000526020600020905b8154815290600101906020018083116106f657829003601f168201915b50505050508152602001906001019061066b565b50505050905090565b60606008826040518082805190602001908083835b60208310151561076a5780518252602082019150602081019050602083039250610745565b6001836020036101000a0380198251168184511680821785525050505050509050019150509081526020016040518091039020805480602002602001604051908101604052809291908181526020016000905b82821015610879578382906000526020600020018054600181600116156101000203166002900480601f0160208091040260200160405190810160405280929190818152602001828054600181600116156101000203166002900480156108655780601f1061083a57610100808354040283529160200191610865565b820191906000526020600020905b81548152906001019060200180831161084857829003601f168201915b5050505050815260200190600101906107bd565b505050509050919050565b606080606080606080606080600061089a610647565b945084516040519080825280602002602001820160405280156108d157816020015b60608152602001906001900390816108bc5790505b509350845160405190808252806020026020018201604052801561090957816020015b60608152602001906001900390816108f45790505b509250845160405190808252806020026020018201604052801561094157816020015b606081526020019060019003908161092c5790505b509150600090505b8451811015610d615760036007868381518110151561096457fe5b906020019060200201516040518082805190602001908083835b6020831015156109a3578051825260208201915060208101905060208303925061097e565b6001836020036101000a0380198251168184511680821785525050505050509050019150509081526020016040518091039020548154811015156109e357fe5b90600052602060002090600902016001018054600181600116156101000203166002900480601f016020809104026020016040519081016040528092919081815260200182805460018160011615610100020316600290048015610a885780601f10610a5d57610100808354040283529160200191610a88565b820191906000526020600020905b815481529060010190602001808311610a6b57829003601f168201915b50505050508482815181101515610a9b57fe5b90602001906020020181905250600360078683815181101515610aba57fe5b906020019060200201516040518082805190602001908083835b602083101515610af95780518252602082019150602081019050602083039250610ad4565b6001836020036101000a038019825116818451168082178552505050505050905001915050908152602001604051809103902054815481101515610b3957fe5b90600052602060002090600902016003018054600181600116156101000203166002900480601f016020809104026020016040519081016040528092919081815260200182805460018160011615610100020316600290048015610bde5780601f10610bb357610100808354040283529160200191610bde565b820191906000526020600020905b815481529060010190602001808311610bc157829003601f168201915b50505050508382815181101515610bf157fe5b90602001906020020181905250600360078683815181101515610c1057fe5b906020019060200201516040518082805190602001908083835b602083101515610c4f5780518252602082019150602081019050602083039250610c2a565b6001836020036101000a038019825116818451168082178552505050505050905001915050908152602001604051809103902054815481101515610c8f57fe5b90600052602060002090600902016005018054600181600116156101000203166002900480601f016020809104026020016040519081016040528092919081815260200182805460018160011615610100020316600290048015610d345780601f10610d0957610100808354040283529160200191610d34565b820191906000526020600020905b815481529060010190602001808311610d1757829003601f168201915b50505050508282815181101515610d4757fe5b906020019060200201819052508080600101915050610949565b848484849850985098509850505050505090919293565b600b81815481101515610d8757fe5b906000526020600020016000915090505481565b60006004826040518082805190602001908083835b602083101515610dd55780518252602082019150602081019050602083039250610db0565b6001836020036101000a0380198251168184511680821785525050505050509050019150509081526020016040518091039020549050919050565b600381815481101515610e1f57fe5b9060005260206000209060090201600091509050806000018054600181600116156101000203166002900480601f016020809104026020016040519081016040528092919081815260200182805460018160011615610100020316600290048015610ecb5780601f10610ea057610100808354040283529160200191610ecb565b820191906000526020600020905b815481529060010190602001808311610eae57829003601f168201915b505050505090806001018054600181600116156101000203166002900480601f016020809104026020016040519081016040528092919081815260200182805460018160011615610100020316600290048015610f695780601f10610f3e57610100808354040283529160200191610f69565b820191906000526020600020905b815481529060010190602001808311610f4c57829003601f168201915b505050505090806002018054600181600116156101000203166002900480601f0160208091040260200160405190810160405280929190818152602001828054600181600116156101000203166002900480156110075780601f10610fdc57610100808354040283529160200191611007565b820191906000526020600020905b815481529060010190602001808311610fea57829003601f168201915b505050505090806003018054600181600116156101000203166002900480601f0160208091040260200160405190810160405280929190818152602001828054600181600116156101000203166002900480156110a55780601f1061107a576101008083540402835291602001916110a5565b820191906000526020600020905b81548152906001019060200180831161108857829003601f168201915b505050505090806004018054600181600116156101000203166002900480601f0160208091040260200160405190810160405280929190818152602001828054600181600116156101000203166002900480156111435780601f1061111857610100808354040283529160200191611143565b820191906000526020600020905b81548152906001019060200180831161112657829003601f168201915b505050505090806005018054600181600116156101000203166002900480601f0160208091040260200160405190810160405280929190818152602001828054600181600116156101000203166002900480156111e15780601f106111b6576101008083540402835291602001916111e1565b820191906000526020600020905b8154815290600101906020018083116111c457829003601f168201915b505050505090806006018054600181600116156101000203166002900480601f01602080910402602001604051908101604052809291908181526020018280546001816001161561010002031660029004801561127f5780601f106112545761010080835404028352916020019161127f565b820191906000526020600020905b81548152906001019060200180831161126257829003601f168201915b505050505090806007018054600181600116156101000203166002900480601f01602080910402602001604051908101604052809291908181526020018280546001816001161561010002031660029004801561131d5780601f106112f25761010080835404028352916020019161131d565b820191906000526020600020905b81548152906001019060200180831161130057829003601f168201915b505050505090806008018054600181600116156101000203166002900480601f0160208091040260200160405190810160405280929190818152602001828054600181600116156101000203166002900480156113bb5780601f10611390576101008083540402835291602001916113bb565b820191906000526020600020905b81548152906001019060200180831161139e57829003601f168201915b5050505050905089565b60006007826040518082805190602001908083835b6020831015156113ff57805182526020820191506020810190506020830392506113da565b6001836020036101000a0380198251168184511680821785525050505050509050019150509081526020016040518091039020549050919050565b611442612481565b151561144d57600080fd5b600073ffffffffffffffffffffffffffffffffffffffff166000809054906101000a900473ffffffffffffffffffffffffffffffffffffffff1673ffffffffffffffffffffffffffffffffffffffff167f8be0079c531659141344cd1fd0a4f28419497f9722a3daafe3b4186f6b6457e060405160405180910390a360008060006101000a81548173ffffffffffffffffffffffffffffffffffffffff021916908373ffffffffffffffffffffffffffffffffffffffff160217905550565b8060036007846040518082805190602001908083835b6020831015156115475780518252602082019150602081019050602083039250611522565b6001836020036101000a03801982511681845116808217855250505050505090500191505090815260200160405180910390205481548110151561158757fe5b906000526020600020906009020160060190805190602001906115ab9291906136f6565b506001600b6007846040518082805190602001908083835b6020831015156115e857805182526020820191506020810190506020830392506115c3565b6001836020036101000a03801982511681845116808217855250505050505090500191505090815260200160405180910390205481548110151561162857fe5b90600052602060002001541115156116c5576001600b6007846040518082805190602001908083835b6020831015156116765780518252602082019150602081019050602083039250611651565b6001836020036101000a0380198251168184511680821785525050505050509050019150509081526020016040518091039020548154811015156116b657fe5b90600052602060002001819055505b5050565b6060806060806060806060806060806060806060600060068f6040518082805190602001908083835b60208310151561171757805182526020820191506020810190506020830392506116f2565b6001836020036101000a0380198251168184511680821785525050505050509050019150509081526020016040518091039020805480602002602001604051908101604052809291908181526020016000905b82821015611826578382906000526020600020018054600181600116156101000203166002900480601f0160208091040260200160405190810160405280929190818152602001828054600181600116156101000203166002900480156118125780601f106117e757610100808354040283529160200191611812565b820191906000526020600020905b8154815290600101906020018083116117f557829003601f168201915b50505050508152602001906001019061176a565b505050509750875160405190808252806020026020018201604052801561186157816020015b606081526020019060019003908161184c5790505b509650875160405190808252806020026020018201604052801561189957816020015b60608152602001906001900390816118845790505b50955087516040519080825280602002602001820160405280156118d157816020015b60608152602001906001900390816118bc5790505b509450875160405190808252806020026020018201604052801561190957816020015b60608152602001906001900390816118f45790505b509350875160405190808252806020026020018201604052801561194157816020015b606081526020019060019003908161192c5790505b509250875160405190808252806020026020018201604052801561197957816020015b60608152602001906001900390816119645790505b509150600090505b875181101561219b5760036007898381518110151561199c57fe5b906020019060200201516040518082805190602001908083835b6020831015156119db57805182526020820191506020810190506020830392506119b6565b6001836020036101000a038019825116818451168082178552505050505050905001915050908152602001604051809103902054815481101515611a1b57fe5b90600052602060002090600902016000018054600181600116156101000203166002900480601f016020809104026020016040519081016040528092919081815260200182805460018160011615610100020316600290048015611ac05780601f10611a9557610100808354040283529160200191611ac0565b820191906000526020600020905b815481529060010190602001808311611aa357829003601f168201915b50505050508782815181101515611ad357fe5b90602001906020020181905250600360078983815181101515611af257fe5b906020019060200201516040518082805190602001908083835b602083101515611b315780518252602082019150602081019050602083039250611b0c565b6001836020036101000a038019825116818451168082178552505050505050905001915050908152602001604051809103902054815481101515611b7157fe5b90600052602060002090600902016001018054600181600116156101000203166002900480601f016020809104026020016040519081016040528092919081815260200182805460018160011615610100020316600290048015611c165780601f10611beb57610100808354040283529160200191611c16565b820191906000526020600020905b815481529060010190602001808311611bf957829003601f168201915b50505050508682815181101515611c2957fe5b90602001906020020181905250600360078983815181101515611c4857fe5b906020019060200201516040518082805190602001908083835b602083101515611c875780518252602082019150602081019050602083039250611c62565b6001836020036101000a038019825116818451168082178552505050505050905001915050908152602001604051809103902054815481101515611cc757fe5b90600052602060002090600902016003018054600181600116156101000203166002900480601f016020809104026020016040519081016040528092919081815260200182805460018160011615610100020316600290048015611d6c5780601f10611d4157610100808354040283529160200191611d6c565b820191906000526020600020905b815481529060010190602001808311611d4f57829003601f168201915b50505050508582815181101515611d7f57fe5b90602001906020020181905250600360078983815181101515611d9e57fe5b906020019060200201516040518082805190602001908083835b602083101515611ddd5780518252602082019150602081019050602083039250611db8565b6001836020036101000a038019825116818451168082178552505050505050905001915050908152602001604051809103902054815481101515611e1d57fe5b90600052602060002090600902016006018054600181600116156101000203166002900480601f016020809104026020016040519081016040528092919081815260200182805460018160011615610100020316600290048015611ec25780601f10611e9757610100808354040283529160200191611ec2565b820191906000526020600020905b815481529060010190602001808311611ea557829003601f168201915b50505050508482815181101515611ed557fe5b90602001906020020181905250600360078983815181101515611ef457fe5b906020019060200201516040518082805190602001908083835b602083101515611f335780518252602082019150602081019050602083039250611f0e565b6001836020036101000a038019825116818451168082178552505050505050905001915050908152602001604051809103902054815481101515611f7357fe5b90600052602060002090600902016007018054600181600116156101000203166002900480601f0160208091040260200160405190810160405280929190818152602001828054600181600116156101000203166002900480156120185780601f10611fed57610100808354040283529160200191612018565b820191906000526020600020905b815481529060010190602001808311611ffb57829003601f168201915b5050505050838281518110151561202b57fe5b9060200190602002018190525060036007898381518110151561204a57fe5b906020019060200201516040518082805190602001908083835b6020831015156120895780518252602082019150602081019050602083039250612064565b6001836020036101000a0380198251168184511680821785525050505050509050019150509081526020016040518091039020548154811015156120c957fe5b90600052602060002090600902016008018054600181600116156101000203166002900480601f01602080910402602001604051908101604052809291908181526020018280546001816001161561010002031660029004801561216e5780601f106121435761010080835404028352916020019161216e565b820191906000526020600020905b81548152906001019060200180831161215157829003601f168201915b5050505050828281518110151561218157fe5b906020019060200201819052508080600101915050611981565b8686868686869d509d509d509d509d509d50505050505050505091939550919395565b6060600a805480602002602001604051908101604052809291908181526020016000905b8282101561229e578382906000526020600020018054600181600116156101000203166002900480601f01602080910402602001604051908101604052809291908181526020018280546001816001161561010002031660029004801561228a5780601f1061225f5761010080835404028352916020019161228a565b820191906000526020600020905b81548152906001019060200180831161226d57829003601f168201915b5050505050815260200190600101906121e2565b50505050905090565b6122af613776565b838160000181905250828160200181905250818160400181905250600181908060018154018082558091505090600182039060005260206000209060030201600090919290919091506000820151816000019080519060200190612314929190613798565b506020820151816001019080519060200190612331929190613798565b50604082015181600201908051906020019061234e929190613798565b505050506002836040518082805190602001908083835b60208310151561238a5780518252602082019150602081019050602083039250612365565b6001836020036101000a03801982511681845116808217855250505050505090500191505090815260200160405180910390208490806001815401808255809150509060018203906000526020600020016000909192909190915090805190602001906123f89291906136f6565b505050505050565b6060600b80548060200260200160405190810160405280929190818152602001828054801561244e57602002820191906000526020600020905b81548152602001906001019080831161243a575b5050505050905090565b60008060009054906101000a900473ffffffffffffffffffffffffffffffffffffffff16905090565b60008060009054906101000a900473ffffffffffffffffffffffffffffffffffffffff1673ffffffffffffffffffffffffffffffffffffffff163373ffffffffffffffffffffffffffffffffffffffff1614905090565b6009818154811015156124e757fe5b906000526020600020016000915090508054600181600116156101000203166002900480601f01602080910402602001604051908101604052809291908181526020018280546001816001161561010002031660029004801561258b5780601f106125605761010080835404028352916020019161258b565b820191906000526020600020905b81548152906001019060200180831161256e57829003601f168201915b505050505081565b6060806060806060806125a4613818565b60036007896040518082805190602001908083835b6020831015156125de57805182526020820191506020810190506020830392506125b9565b6001836020036101000a03801982511681845116808217855250505050505090500191505090815260200160405180910390205481548110151561261e57fe5b90600052602060002090600902016101206040519081016040529081600082018054600181600116156101000203166002900480601f0160208091040260200160405190810160405280929190818152602001828054600181600116156101000203166002900480156126d25780601f106126a7576101008083540402835291602001916126d2565b820191906000526020600020905b8154815290600101906020018083116126b557829003601f168201915b50505050508152602001600182018054600181600116156101000203166002900480601f0160208091040260200160405190810160405280929190818152602001828054600181600116156101000203166002900480156127745780601f1061274957610100808354040283529160200191612774565b820191906000526020600020905b81548152906001019060200180831161275757829003601f168201915b50505050508152602001600282018054600181600116156101000203166002900480601f0160208091040260200160405190810160405280929190818152602001828054600181600116156101000203166002900480156128165780601f106127eb57610100808354040283529160200191612816565b820191906000526020600020905b8154815290600101906020018083116127f957829003601f168201915b50505050508152602001600382018054600181600116156101000203166002900480601f0160208091040260200160405190810160405280929190818152602001828054600181600116156101000203166002900480156128b85780601f1061288d576101008083540402835291602001916128b8565b820191906000526020600020905b81548152906001019060200180831161289b57829003601f168201915b50505050508152602001600482018054600181600116156101000203166002900480601f01602080910402602001604051908101604052809291908181526020018280546001816001161561010002031660029004801561295a5780601f1061292f5761010080835404028352916020019161295a565b820191906000526020600020905b81548152906001019060200180831161293d57829003601f168201915b50505050508152602001600582018054600181600116156101000203166002900480601f0160208091040260200160405190810160405280929190818152602001828054600181600116156101000203166002900480156129fc5780601f106129d1576101008083540402835291602001916129fc565b820191906000526020600020905b8154815290600101906020018083116129df57829003601f168201915b50505050508152602001600682018054600181600116156101000203166002900480601f016020809104026020016040519081016040528092919081815260200182805460018160011615610100020316600290048015612a9e5780601f10612a7357610100808354040283529160200191612a9e565b820191906000526020600020905b815481529060010190602001808311612a8157829003601f168201915b50505050508152602001600782018054600181600116156101000203166002900480601f016020809104026020016040519081016040528092919081815260200182805460018160011615610100020316600290048015612b405780601f10612b1557610100808354040283529160200191612b40565b820191906000526020600020905b815481529060010190602001808311612b2357829003601f168201915b50505050508152602001600882018054600181600116156101000203166002900480601f016020809104026020016040519081016040528092919081815260200182805460018160011615610100020316600290048015612be25780601f10612bb757610100808354040283529160200191612be2565b820191906000526020600020905b815481529060010190602001808311612bc557829003601f168201915b50505050508152505090508781606001518260a001518360c001518460e001518561010001518494508393508292508191508090509650965096509650965096505091939550919395565b8160036007856040518082805190602001908083835b602083101515612c685780518252602082019150602081019050602083039250612c43565b6001836020036101000a038019825116818451168082178552505050505050905001915050908152602001604051809103902054815481101515612ca857fe5b90600052602060002090600902016007019080519060200190612ccc9291906136f6565b508060036007856040518082805190602001908083835b602083101515612d085780518252602082019150602081019050602083039250612ce3565b6001836020036101000a038019825116818451168082178552505050505050905001915050908152602001604051809103902054815481101515612d4857fe5b90600052602060002090600902016008019080519060200190612d6c9291906136f6565b506002600b6007856040518082805190602001908083835b602083101515612da95780518252602082019150602081019050602083039250612d84565b6001836020036101000a038019825116818451168082178552505050505050905001915050908152602001604051809103902054815481101515612de957fe5b90600052602060002001819055506008836040518082805190602001908083835b602083101515612e2f5780518252602082019150602081019050602083039250612e0a565b6001836020036101000a0380198251168184511680821785525050505050509050019150509081526020016040518091039020829080600181540180825580915050906001820390600052602060002001600090919290919091509080519060200190612e9d9291906136f6565b5050505050565b612eac613818565b868160000181905250858160200181905250848160400181905250838160600181905250828160800181905250818160a0018190525060206040519081016040528060008152508160c0018190525060206040519081016040528060008152508160e001819052506020604051908101604052806000815250816101000181905250600381908060018154018082558091505090600182039060005260206000209060090201600090919290919091506000820151816000019080519060200190612f78929190613798565b506020820151816001019080519060200190612f95929190613798565b506040820151816002019080519060200190612fb2929190613798565b506060820151816003019080519060200190612fcf929190613798565b506080820151816004019080519060200190612fec929190613798565b5060a0820151816005019080519060200190613009929190613798565b5060c0820151816006019080519060200190613026929190613798565b5060e0820151816007019080519060200190613043929190613798565b50610100820151816008019080519060200190613061929190613798565b50505050600b60009080600181540180825580915050906001820390600052602060002001600090919290919091505550816005886040518082805190602001908083835b6020831015156130cb57805182526020820191506020810190506020830392506130a6565b6001836020036101000a038019825116818451168082178552505050505050905001915050908152602001604051809103902090805190602001906131119291906136f6565b506006826040518082805190602001908083835b60208310151561314a5780518252602082019150602081019050602083039250613125565b6001836020036101000a03801982511681845116808217855250505050505090500191505090815260200160405180910390208790806001815401808255809150509060018203906000526020600020016000909192909190915090805190602001906131b89291906136f6565b50506001600380549050036007886040518082805190602001908083835b6020831015156131fb57805182526020820191506020810190506020830392506131d6565b6001836020036101000a0380198251168184511680821785525050505050509050019150509081526020016040518091039020819055506008876040518082805190602001908083835b60208310151561326a5780518252602082019150602081019050602083039250613245565b6001836020036101000a03801982511681845116808217855250505050505090500191505090815260200160405180910390208290806001815401808255809150509060018203906000526020600020016000909192909190915090805190602001906132d89291906136f6565b505060098790806001815401808255809150509060018203906000526020600020016000909192909190915090805190602001906133179291906136f6565b5050600a8690806001815401808255809150509060018203906000526020600020016000909192909190915090805190602001906133569291906136f6565b50506004856040518082805190602001908083835b602083101515613390578051825260208201915060208101905060208303925061336b565b6001836020036101000a03801982511681845116808217855250505050505090500191505090815260200160405180910390206000815480929190600101919050555050505050505050565b6133e4612481565b15156133ef57600080fd5b6133f8816135fc565b50565b60018181548110151561340a57fe5b9060005260206000209060030201600091509050806000018054600181600116156101000203166002900480601f0160208091040260200160405190810160405280929190818152602001828054600181600116156101000203166002900480156134b65780601f1061348b576101008083540402835291602001916134b6565b820191906000526020600020905b81548152906001019060200180831161349957829003601f168201915b505050505090806001018054600181600116156101000203166002900480601f0160208091040260200160405190810160405280929190818152602001828054600181600116156101000203166002900480156135545780601f1061352957610100808354040283529160200191613554565b820191906000526020600020905b81548152906001019060200180831161353757829003601f168201915b505050505090806002018054600181600116156101000203166002900480601f0160208091040260200160405190810160405280929190818152602001828054600181600116156101000203166002900480156135f25780601f106135c7576101008083540402835291602001916135f2565b820191906000526020600020905b8154815290600101906020018083116135d557829003601f168201915b5050505050905083565b600073ffffffffffffffffffffffffffffffffffffffff168173ffffffffffffffffffffffffffffffffffffffff161415151561363857600080fd5b8073ffffffffffffffffffffffffffffffffffffffff166000809054906101000a900473ffffffffffffffffffffffffffffffffffffffff1673ffffffffffffffffffffffffffffffffffffffff167f8be0079c531659141344cd1fd0a4f28419497f9722a3daafe3b4186f6b6457e060405160405180910390a3806000806101000a81548173ffffffffffffffffffffffffffffffffffffffff021916908373ffffffffffffffffffffffffffffffffffffffff16021790555050565b828054600181600116156101000203166002900490600052602060002090601f016020900481019282601f1061373757805160ff1916838001178555613765565b82800160010185558215613765579182015b82811115613764578251825591602001919060010190613749565b5b5090506137729190613865565b5090565b6060604051908101604052806060815260200160608152602001606081525090565b828054600181600116156101000203166002900490600052602060002090601f016020900481019282601f106137d957805160ff1916838001178555613807565b82800160010185558215613807579182015b828111156138065782518255916020019190600101906137eb565b5b5090506138149190613865565b5090565b610120604051908101604052806060815260200160608152602001606081526020016060815260200160608152602001606081526020016060815260200160608152602001606081525090565b61388791905b8082111561388357600081600090555060010161386b565b5090565b90565b6000613896823561414e565b905092915050565b600082601f83011215156138b157600080fd5b81356138c46138bf8261408c565b61405f565b915080825260208301602083018583830111156138e057600080fd5b6138eb838284614178565b50505092915050565b6000613900823561416e565b905092915050565b60006020828403121561391a57600080fd5b60006139288482850161388a565b91505092915050565b60006020828403121561394357600080fd5b600082013567ffffffffffffffff81111561395d57600080fd5b6139698482850161389e565b91505092915050565b6000806040838503121561398557600080fd5b600083013567ffffffffffffffff81111561399f57600080fd5b6139ab8582860161389e565b925050602083013567ffffffffffffffff8111156139c857600080fd5b6139d48582860161389e565b9150509250929050565b6000806000606084860312156139f357600080fd5b600084013567ffffffffffffffff811115613a0d57600080fd5b613a198682870161389e565b935050602084013567ffffffffffffffff811115613a3657600080fd5b613a428682870161389e565b925050604084013567ffffffffffffffff811115613a5f57600080fd5b613a6b8682870161389e565b9150509250925092565b60008060008060008060c08789031215613a8e57600080fd5b600087013567ffffffffffffffff811115613aa857600080fd5b613ab489828a0161389e565b965050602087013567ffffffffffffffff811115613ad157600080fd5b613add89828a0161389e565b955050604087013567ffffffffffffffff811115613afa57600080fd5b613b0689828a0161389e565b945050606087013567ffffffffffffffff811115613b2357600080fd5b613b2f89828a0161389e565b935050608087013567ffffffffffffffff811115613b4c57600080fd5b613b5889828a0161389e565b92505060a087013567ffffffffffffffff811115613b7557600080fd5b613b8189828a0161389e565b9150509295509295509295565b600060208284031215613ba057600080fd5b6000613bae848285016138f4565b91505092915050565b613bc081614118565b82525050565b6000613bd1826140d2565b80845260208401935083602082028501613bea856140b8565b60005b84811015613c23578383038852613c05838351613cd4565b9250613c10826140fe565b9150602088019750600181019050613bed565b508196508694505050505092915050565b6000613c3f826140dd565b808452602084019350613c51836140c5565b60005b82811015613c8357613c67868351613d0a565b613c708261410b565b9150602086019550600181019050613c54565b50849250505092915050565b613c9881614138565b82525050565b6000613ca9826140f3565b808452613cbd816020860160208601614187565b613cc6816141ba565b602085010191505092915050565b6000613cdf826140e8565b808452613cf3816020860160208601614187565b613cfc816141ba565b602085010191505092915050565b613d1381614144565b82525050565b6000602082019050613d2e6000830184613bb7565b92915050565b60006020820190508181036000830152613d4e8184613bc6565b905092915050565b60006080820190508181036000830152613d708187613bc6565b90508181036020830152613d848186613bc6565b90508181036040830152613d988185613bc6565b90508181036060830152613dac8184613bc6565b905095945050505050565b600060c0820190508181036000830152613dd18189613bc6565b90508181036020830152613de58188613bc6565b90508181036040830152613df98187613bc6565b90508181036060830152613e0d8186613bc6565b90508181036080830152613e218185613bc6565b905081810360a0830152613e358184613bc6565b9050979650505050505050565b60006020820190508181036000830152613e5c8184613c34565b905092915050565b6000602082019050613e796000830184613c8f565b92915050565b60006020820190508181036000830152613e998184613cd4565b905092915050565b600060c0820190508181036000830152613ebb8189613c9e565b90508181036020830152613ecf8188613c9e565b90508181036040830152613ee38187613c9e565b90508181036060830152613ef78186613c9e565b90508181036080830152613f0b8185613c9e565b905081810360a0830152613f1f8184613c9e565b9050979650505050505050565b60006060820190508181036000830152613f468186613cd4565b90508181036020830152613f5a8185613cd4565b90508181036040830152613f6e8184613cd4565b9050949350505050565b6000610120820190508181036000830152613f93818c613cd4565b90508181036020830152613fa7818b613cd4565b90508181036040830152613fbb818a613cd4565b90508181036060830152613fcf8189613cd4565b90508181036080830152613fe38188613cd4565b905081810360a0830152613ff78187613cd4565b905081810360c083015261400b8186613cd4565b905081810360e083015261401f8185613cd4565b90508181036101008301526140348184613cd4565b90509a9950505050505050505050565b60006020820190506140596000830184613d0a565b92915050565b6000604051905081810181811067ffffffffffffffff8211171561408257600080fd5b8060405250919050565b600067ffffffffffffffff8211156140a357600080fd5b601f19601f8301169050602081019050919050565b6000602082019050919050565b6000602082019050919050565b600081519050919050565b600081519050919050565b600081519050919050565b600081519050919050565b6000602082019050919050565b6000602082019050919050565b600073ffffffffffffffffffffffffffffffffffffffff82169050919050565b60008115159050919050565b6000819050919050565b600073ffffffffffffffffffffffffffffffffffffffff82169050919050565b6000819050919050565b82818337600083830152505050565b60005b838110156141a557808201518184015260208101905061418a565b838111156141b4576000848401525b50505050565b6000601f19601f83011690509190505600a265627a7a72305820600ab3ad1bfc7be2c39c028692a2083a208de9eca148be02245614f8bb8f1f586c6578706572696d656e74616cf50037",
  "source": "pragma solidity ^0.4.24;\npragma experimental ABIEncoderV2;\nimport \"./ownable.sol\";\n\ncontract HappyAlliance is Ownable {\n\n\tstruct Donation {\n  \t// Do not record details in the blockchain\n  \tstring donationId; // donation Id\n  \tstring memberId; // member Id\n\t\tstring openInfo; // information that a member agrees to open\n  }\n\n  Donation[] public donations; // donation array\n  mapping (string => string[]) memberToDonations;\n\n  struct Box {\n    string boxId; // box Id\n    string boxType; // box type such as KIDS\n    string generatedYear; // year that a box is generated\n    string serializedDonationsDetails; // originally string[] donationIds;\n    string expirationDate; // expiration date obtained from the minimum value out of donations\n    string npoInfo; // npo information\n    string npoReceivedTime; // check whether the npo receives\n    string recipientInfo; // information about last recipients\n    string recipientReceivedTime; // check whether the recipient receives\n  }\n\n  Box[] public boxes; // box array\n\n  mapping (string => uint) yearlyCounts;\n  mapping (string => string) boxToNPO;\n  mapping (string => string[]) npoToBoxIds;\n  mapping (string => uint) boxIdToIdx;\n  mapping (string => string[]) historyOfBox; // record whole destination history\n\n  string[] public boxIdList; // list of box ids\n\tstring[] public boxTypes; // list of box types\n\n  uint[] public boxStatus;\n\n  constructor () public {\n    // initialize the first box of which id is \"test\"\n    distributeBox(\"initialize\", \"undefined\", \"undefined\", '[{\"undefined\": \"\"}]', \"null\", \"undefined\");\n    boxStatus[0] = 99;\n    donate(\"initialize\", \"noname\", \"noInfo\");\n  }\n\n  function donate (string _donationId, string _memberId, string _openInfo) public {\n  \tDonation memory tmpDonation;\n  \ttmpDonation.donationId = _donationId;\n  \ttmpDonation.memberId = _memberId;\n\t\ttmpDonation.openInfo = _openInfo;\n    donations.push(tmpDonation);\n  \tmemberToDonations[_memberId].push(_donationId);\n  }\n\n  function distributeBox (string _boxId, string _boxType, string _year, string _serializedDonationsDetails, string _expirationDate, string _npo) public {\n    Box memory tmpBox;\n    tmpBox.boxId = _boxId;\n    tmpBox.boxType = _boxType;\n    tmpBox.generatedYear = _year;\n    tmpBox.serializedDonationsDetails = _serializedDonationsDetails;\n    tmpBox.expirationDate = _expirationDate;\n    tmpBox.npoInfo = _npo;\n    tmpBox.npoReceivedTime = '';\n    tmpBox.recipientInfo = '';\n    tmpBox.recipientReceivedTime = '';\n\n    boxes.push(tmpBox);\n    boxStatus.push(0);\n\n    boxToNPO[_boxId] = _npo;\n    npoToBoxIds[_npo].push(_boxId);\n    boxIdToIdx[_boxId] = boxes.length - 1;\n    historyOfBox[_boxId].push(_npo);\n    boxIdList.push(_boxId);\n\t\tboxTypes.push(_boxType);\n    yearlyCounts[_year]++;\n  }\n\n\t// confirm that a npo receives a box\n  function receiveBox (string _boxId, string _time) public {\n    boxes[boxIdToIdx[_boxId]].npoReceivedTime = _time;\n    if(boxStatus[boxIdToIdx[_boxId]]<=1){\n      boxStatus[boxIdToIdx[_boxId]] = 1;\n    }\n  }\n\n\tfunction addInfo (string _boxId, string _recipientInfo, string _time) public {\n    boxes[boxIdToIdx[_boxId]].recipientInfo = _recipientInfo;\n    boxes[boxIdToIdx[_boxId]].recipientReceivedTime = _time;\n    boxStatus[boxIdToIdx[_boxId]] = 2;\n    historyOfBox[_boxId].push(_recipientInfo);\n  }\n\n  // return all box ids;\n  function getBoxIds () public view returns(string[]){\n    return boxIdList;\n  }\n\n\t// return box types;\n\tfunction getBoxTypes () public view returns(string[]){\n    return boxTypes;\n  }\n\n  // return the received history of a box\n  function getHistoryOfBox (string _boxId) public view returns(string[]){\n    return historyOfBox[_boxId];\n  }\n\n\n\n  // After a recipient receives the box and notifies this update to SK\n\n\n  function getStatusForAll () public view returns (uint[]) {\n    return boxStatus;\n  }\n\n  // check box information\n  function viewBoxInformation (string _boxId) public view returns(string, string, string, string, string, string){\n    //require(boxes[boxIdToIdx[_boxId]].received == true, \"NPO does not receive the box yet.\");\n    Box memory targetBox = boxes[boxIdToIdx[_boxId]];\n    return (_boxId, targetBox.serializedDonationsDetails, targetBox.npoInfo, targetBox.npoReceivedTime, targetBox.recipientInfo, targetBox.recipientReceivedTime);\n  }\n\n  // mapping box id to index in 'boxes' array\n  function getIndexByBoxId (string _boxId) public view returns (uint) {\n    return boxIdToIdx[_boxId];\n  }\n\n  // get number of boxes by year\n  function getNumBoxesByYear (string _year) public view returns (uint) {\n    return yearlyCounts[_year];\n  }\n\n  function getBoxInfoByNPO (string _npo) public view returns (string[], string[], string[], string[], string[], string[]) {\n    string[] memory tmp = npoToBoxIds[_npo];\n\n    string[] memory list1 = new string[](tmp.length);\n    string[] memory list2 = new string[](tmp.length);\n    string[] memory list3 = new string[](tmp.length);\n    string[] memory list4 = new string[](tmp.length);\n    string[] memory list5 = new string[](tmp.length);\n    string[] memory list6 = new string[](tmp.length);\n\n    for(uint i=0; i<tmp.length; i++){\n      list1[i] = boxes[boxIdToIdx[tmp[i]]].boxId;\n      list2[i] = boxes[boxIdToIdx[tmp[i]]].boxType;\n      list3[i] = boxes[boxIdToIdx[tmp[i]]].serializedDonationsDetails;\n      list4[i] = boxes[boxIdToIdx[tmp[i]]].npoReceivedTime;\n      list5[i] = boxes[boxIdToIdx[tmp[i]]].recipientInfo;\n      list6[i] = boxes[boxIdToIdx[tmp[i]]].recipientReceivedTime;\n    }\n    return (list1, list2, list3, list4, list5, list6);\n  }\n\n\tfunction getAllBoxInfo () public view returns (string[], string[], string[], string[]){\n\t\tstring[] memory boxIds = getBoxIds();\n\t\tstring[] memory types = new string[](boxIds.length);\n\t\tstring[] memory donations = new string[](boxIds.length);\n\t\tstring[] memory npos = new string[](boxIds.length);\n\t\tfor(uint i=0; i<boxIds.length; i++){\n\t\t\ttypes[i] = boxes[boxIdToIdx[boxIds[i]]].boxType;\n\t\t\tdonations[i] = boxes[boxIdToIdx[boxIds[i]]].serializedDonationsDetails;\n\t\t\tnpos[i] = boxes[boxIdToIdx[boxIds[i]]].npoInfo;\n\t\t}\n\t\treturn (boxIds, types, donations, npos);\n\t}\n\n}\n",
  "sourcePath": "/Users/hyunuk/HappinessChainProject/smart_contract/contracts/HappyAlliance.sol",
  "compiler": {
    "name": "solc",
    "version": "0.4.25+commit.59dbf8f1.Emscripten.clang"
  },
  "schemaVersion": "2.0.2",
  "updatedAt": "2019-05-29T09:58:16.408Z"
}